{
  "abi": [
    {
      "inputs": [
        {
          "internalType": "address",
          "name": "_vault",
          "type": "address"
        },
        {
          "internalType": "address",
          "name": "_externalVault",
          "type": "address"
        }
      ],
      "stateMutability": "nonpayable",
      "type": "constructor"
    },
    {
      "anonymous": false,
      "inputs": [],
      "name": "EmergencyExitEnabled",
      "type": "event"
    },
    {
      "anonymous": false,
      "inputs": [
        {
          "indexed": false,
          "internalType": "uint256",
          "name": "profit",
          "type": "uint256"
        },
        {
          "indexed": false,
          "internalType": "uint256",
          "name": "loss",
          "type": "uint256"
        },
        {
          "indexed": false,
          "internalType": "uint256",
          "name": "debtPayment",
          "type": "uint256"
        },
        {
          "indexed": false,
          "internalType": "uint256",
          "name": "debtOutstanding",
          "type": "uint256"
        }
      ],
      "name": "Harvested",
      "type": "event"
    },
    {
      "anonymous": false,
      "inputs": [
        {
          "indexed": false,
          "internalType": "uint256",
          "name": "debtThreshold",
          "type": "uint256"
        }
      ],
      "name": "UpdatedDebtThreshold",
      "type": "event"
    },
    {
      "anonymous": false,
      "inputs": [
        {
          "indexed": false,
          "internalType": "address",
          "name": "newKeeper",
          "type": "address"
        }
      ],
      "name": "UpdatedKeeper",
      "type": "event"
    },
    {
      "anonymous": false,
      "inputs": [
        {
          "indexed": false,
          "internalType": "uint256",
          "name": "delay",
          "type": "uint256"
        }
      ],
      "name": "UpdatedMaxReportDelay",
      "type": "event"
    },
    {
      "anonymous": false,
      "inputs": [
        {
          "indexed": false,
          "internalType": "string",
          "name": "metadataURI",
          "type": "string"
        }
      ],
      "name": "UpdatedMetadataURI",
      "type": "event"
    },
    {
      "anonymous": false,
      "inputs": [
        {
          "indexed": false,
          "internalType": "uint256",
          "name": "delay",
          "type": "uint256"
        }
      ],
      "name": "UpdatedMinReportDelay",
      "type": "event"
    },
    {
      "anonymous": false,
      "inputs": [
        {
          "indexed": false,
          "internalType": "uint256",
          "name": "profitFactor",
          "type": "uint256"
        }
      ],
      "name": "UpdatedProfitFactor",
      "type": "event"
    },
    {
      "anonymous": false,
      "inputs": [
        {
          "indexed": false,
          "internalType": "address",
          "name": "rewards",
          "type": "address"
        }
      ],
      "name": "UpdatedRewards",
      "type": "event"
    },
    {
      "anonymous": false,
      "inputs": [
        {
          "indexed": false,
          "internalType": "address",
          "name": "newStrategist",
          "type": "address"
        }
      ],
      "name": "UpdatedStrategist",
      "type": "event"
    },
    {
      "inputs": [],
      "name": "apiVersion",
      "outputs": [
        {
          "internalType": "string",
          "name": "",
          "type": "string"
        }
      ],
      "stateMutability": "pure",
      "type": "function"
    },
    {
      "inputs": [],
      "name": "balanceOfStake",
      "outputs": [
        {
          "internalType": "uint256",
          "name": "",
          "type": "uint256"
        }
      ],
      "stateMutability": "view",
      "type": "function"
    },
    {
      "inputs": [],
      "name": "debtThreshold",
      "outputs": [
        {
          "internalType": "uint256",
          "name": "",
          "type": "uint256"
        }
      ],
      "stateMutability": "view",
      "type": "function"
    },
    {
      "inputs": [],
      "name": "delegatedAssets",
      "outputs": [
        {
          "internalType": "uint256",
          "name": "",
          "type": "uint256"
        }
      ],
      "stateMutability": "view",
      "type": "function"
    },
    {
      "inputs": [],
      "name": "doHealthCheck",
      "outputs": [
        {
          "internalType": "bool",
          "name": "",
          "type": "bool"
        }
      ],
      "stateMutability": "view",
      "type": "function"
    },
    {
      "inputs": [],
      "name": "emergencyExit",
      "outputs": [
        {
          "internalType": "bool",
          "name": "",
          "type": "bool"
        }
      ],
      "stateMutability": "view",
      "type": "function"
    },
    {
      "inputs": [],
      "name": "estimatedTotalAssets",
      "outputs": [
        {
          "internalType": "uint256",
          "name": "",
          "type": "uint256"
        }
      ],
      "stateMutability": "view",
      "type": "function"
    },
    {
      "inputs": [
        {
          "internalType": "uint256",
          "name": "_amtInWei",
          "type": "uint256"
        }
      ],
      "name": "ethToWant",
      "outputs": [
        {
          "internalType": "uint256",
          "name": "",
          "type": "uint256"
        }
      ],
      "stateMutability": "view",
      "type": "function"
    },
    {
      "inputs": [],
      "name": "externalVault",
      "outputs": [
        {
          "internalType": "contract VaultAPI",
          "name": "",
          "type": "address"
        }
      ],
      "stateMutability": "view",
      "type": "function"
    },
    {
      "inputs": [],
      "name": "harvest",
      "outputs": [],
      "stateMutability": "nonpayable",
      "type": "function"
    },
    {
      "inputs": [
        {
          "internalType": "uint256",
          "name": "callCostInWei",
          "type": "uint256"
        }
      ],
      "name": "harvestTrigger",
      "outputs": [
        {
          "internalType": "bool",
          "name": "",
          "type": "bool"
        }
      ],
      "stateMutability": "view",
      "type": "function"
    },
    {
      "inputs": [],
      "name": "healthCheck",
      "outputs": [
        {
          "internalType": "address",
          "name": "",
          "type": "address"
        }
      ],
      "stateMutability": "view",
      "type": "function"
    },
    {
      "inputs": [],
      "name": "isActive",
      "outputs": [
        {
          "internalType": "bool",
          "name": "",
          "type": "bool"
        }
      ],
      "stateMutability": "view",
      "type": "function"
    },
    {
      "inputs": [],
      "name": "keeper",
      "outputs": [
        {
          "internalType": "address",
          "name": "",
          "type": "address"
        }
      ],
      "stateMutability": "view",
      "type": "function"
    },
    {
      "inputs": [],
      "name": "maxReportDelay",
      "outputs": [
        {
          "internalType": "uint256",
          "name": "",
          "type": "uint256"
        }
      ],
      "stateMutability": "view",
      "type": "function"
    },
    {
      "inputs": [],
      "name": "metadataURI",
      "outputs": [
        {
          "internalType": "string",
          "name": "",
          "type": "string"
        }
      ],
      "stateMutability": "view",
      "type": "function"
    },
    {
      "inputs": [
        {
          "internalType": "address",
          "name": "_newStrategy",
          "type": "address"
        }
      ],
      "name": "migrate",
      "outputs": [],
      "stateMutability": "nonpayable",
      "type": "function"
    },
    {
      "inputs": [],
      "name": "minReportDelay",
      "outputs": [
        {
          "internalType": "uint256",
          "name": "",
          "type": "uint256"
        }
      ],
      "stateMutability": "view",
      "type": "function"
    },
    {
      "inputs": [],
      "name": "name",
      "outputs": [
        {
          "internalType": "string",
          "name": "",
          "type": "string"
        }
      ],
      "stateMutability": "view",
      "type": "function"
    },
    {
      "inputs": [],
      "name": "profitFactor",
      "outputs": [
        {
          "internalType": "uint256",
          "name": "",
          "type": "uint256"
        }
      ],
      "stateMutability": "view",
      "type": "function"
    },
    {
      "inputs": [],
      "name": "rewards",
      "outputs": [
        {
          "internalType": "address",
          "name": "",
          "type": "address"
        }
      ],
      "stateMutability": "view",
      "type": "function"
    },
    {
      "inputs": [
        {
          "internalType": "uint256",
          "name": "_debtThreshold",
          "type": "uint256"
        }
      ],
      "name": "setDebtThreshold",
      "outputs": [],
      "stateMutability": "nonpayable",
      "type": "function"
    },
    {
      "inputs": [
        {
          "internalType": "bool",
          "name": "_doHealthCheck",
          "type": "bool"
        }
      ],
      "name": "setDoHealthCheck",
      "outputs": [],
      "stateMutability": "nonpayable",
      "type": "function"
    },
    {
      "inputs": [],
      "name": "setEmergencyExit",
      "outputs": [],
      "stateMutability": "nonpayable",
      "type": "function"
    },
    {
      "inputs": [
        {
          "internalType": "address",
          "name": "_healthCheck",
          "type": "address"
        }
      ],
      "name": "setHealthCheck",
      "outputs": [],
      "stateMutability": "nonpayable",
      "type": "function"
    },
    {
      "inputs": [
        {
          "internalType": "address",
          "name": "_keeper",
          "type": "address"
        }
      ],
      "name": "setKeeper",
      "outputs": [],
      "stateMutability": "nonpayable",
      "type": "function"
    },
    {
      "inputs": [
        {
          "internalType": "uint256",
          "name": "_delay",
          "type": "uint256"
        }
      ],
      "name": "setMaxReportDelay",
      "outputs": [],
      "stateMutability": "nonpayable",
      "type": "function"
    },
    {
      "inputs": [
        {
          "internalType": "string",
          "name": "_metadataURI",
          "type": "string"
        }
      ],
      "name": "setMetadataURI",
      "outputs": [],
      "stateMutability": "nonpayable",
      "type": "function"
    },
    {
      "inputs": [
        {
          "internalType": "uint256",
          "name": "_delay",
          "type": "uint256"
        }
      ],
      "name": "setMinReportDelay",
      "outputs": [],
      "stateMutability": "nonpayable",
      "type": "function"
    },
    {
      "inputs": [
        {
          "internalType": "uint256",
          "name": "_profitFactor",
          "type": "uint256"
        }
      ],
      "name": "setProfitFactor",
      "outputs": [],
      "stateMutability": "nonpayable",
      "type": "function"
    },
    {
      "inputs": [
        {
          "internalType": "address",
          "name": "_rewards",
          "type": "address"
        }
      ],
      "name": "setRewards",
      "outputs": [],
      "stateMutability": "nonpayable",
      "type": "function"
    },
    {
      "inputs": [
        {
          "internalType": "address",
          "name": "_strategist",
          "type": "address"
        }
      ],
      "name": "setStrategist",
      "outputs": [],
      "stateMutability": "nonpayable",
      "type": "function"
    },
    {
      "inputs": [],
      "name": "strategist",
      "outputs": [
        {
          "internalType": "address",
          "name": "",
          "type": "address"
        }
      ],
      "stateMutability": "view",
      "type": "function"
    },
    {
      "inputs": [
        {
          "internalType": "address",
          "name": "_token",
          "type": "address"
        }
      ],
      "name": "sweep",
      "outputs": [],
      "stateMutability": "nonpayable",
      "type": "function"
    },
    {
      "inputs": [],
      "name": "tend",
      "outputs": [],
      "stateMutability": "nonpayable",
      "type": "function"
    },
    {
      "inputs": [
        {
          "internalType": "uint256",
          "name": "callCostInWei",
          "type": "uint256"
        }
      ],
      "name": "tendTrigger",
      "outputs": [
        {
          "internalType": "bool",
          "name": "",
          "type": "bool"
        }
      ],
      "stateMutability": "view",
      "type": "function"
    },
    {
      "inputs": [],
      "name": "vault",
      "outputs": [
        {
          "internalType": "contract VaultAPI",
          "name": "",
          "type": "address"
        }
      ],
      "stateMutability": "view",
      "type": "function"
    },
    {
      "inputs": [],
      "name": "want",
      "outputs": [
        {
          "internalType": "contract IERC20",
          "name": "",
          "type": "address"
        }
      ],
      "stateMutability": "view",
      "type": "function"
    },
    {
      "inputs": [
        {
          "internalType": "uint256",
          "name": "_amountNeeded",
          "type": "uint256"
        }
      ],
      "name": "withdraw",
      "outputs": [
        {
          "internalType": "uint256",
          "name": "_loss",
          "type": "uint256"
        }
      ],
      "stateMutability": "nonpayable",
      "type": "function"
    }
  ],
  "bytecode": "60806040523480156200001157600080fd5b506040516200374d3803806200374d83398101604081905262000034916200058a565b816200004381338080620000a4565b50600280546001600160a01b0319166001600160a01b0384811691909117909155600b8054610100600160a81b031916610100848416021790556006546200009c91168260001962000288602090811b62001eb817901c565b505062000830565b6006546001600160a01b031615620000d95760405162461bcd60e51b8152600401620000d090620006cf565b60405180910390fd5b600280546001600160a01b0319166001600160a01b03868116919091179182905560408051637e062a3560e11b81529051929091169163fc0c546a91600480820192602092909190829003018186803b1580156200013657600080fd5b505afa1580156200014b573d6000803e3d6000fd5b505050506040513d601f19601f8201168201806040525081019062000171919062000561565b600680546001600160a01b0319166001600160a01b039283161790819055620001ab91168560001962000288602090811b62001eb817901c565b600380546001600160a01b038086166001600160a01b03199283161790925560048054858416908316178082556005805486861694169390931790925560006007819055620151806008556064600955600a5560025460405163095ea7b360e01b81529084169363095ea7b3936200022b9391169160001991016200063b565b602060405180830381600087803b1580156200024657600080fd5b505af11580156200025b573d6000803e3d6000fd5b505050506040513d601f19601f82011682018060405250810190620002819190620005c8565b5050505050565b801580620003175750604051636eb1769f60e11b81526001600160a01b0384169063dd62ed3e90620002c1903090869060040162000621565b60206040518083038186803b158015620002da57600080fd5b505afa158015620002ef573d6000803e3d6000fd5b505050506040513d601f19601f82011682018060405250810190620003159190620005ea565b155b620003365760405162461bcd60e51b8152600401620000d09062000787565b620003918363095ea7b360e01b8484604051602401620003589291906200063b565b60408051808303601f190181529190526020810180516001600160e01b0319939093166001600160e01b03938416179052906200039616565b505050565b6060620003f2826040518060400160405280602081526020017f5361666545524332303a206c6f772d6c6576656c2063616c6c206661696c6564815250856001600160a01b03166200043260201b62001fb7179092919060201c565b805190915015620003915780806020019051810190620004139190620005c8565b620003915760405162461bcd60e51b8152600401620000d0906200073d565b60606200044384846000856200044d565b90505b9392505050565b606082471015620004725760405162461bcd60e51b8152600401620000d09062000689565b6200047d856200051d565b6200049c5760405162461bcd60e51b8152600401620000d09062000706565b60006060866001600160a01b03168587604051620004bb919062000603565b60006040518083038185875af1925050503d8060008114620004fa576040519150601f19603f3d011682016040523d82523d6000602084013e620004ff565b606091505b5090925090506200051282828662000523565b979650505050505050565b3b151590565b606083156200053457508162000446565b825115620005455782518084602001fd5b8160405162461bcd60e51b8152600401620000d0919062000654565b60006020828403121562000573578081fd5b81516001600160a01b038116811462000446578182fd5b600080604083850312156200059d578081fd5b8251620005aa8162000817565b6020840151909250620005bd8162000817565b809150509250929050565b600060208284031215620005da578081fd5b8151801515811462000446578182fd5b600060208284031215620005fc578081fd5b5051919050565b6000825162000617818460208701620007e4565b9190910192915050565b6001600160a01b0392831681529116602082015260400190565b6001600160a01b03929092168252602082015260400190565b600060208252825180602084015262000675816040850160208701620007e4565b601f01601f19169190910160400192915050565b60208082526026908201527f416464726573733a20696e73756666696369656e742062616c616e636520666f6040820152651c8818d85b1b60d21b606082015260800190565b6020808252601c908201527f537472617465677920616c726561647920696e697469616c697a656400000000604082015260600190565b6020808252601d908201527f416464726573733a2063616c6c20746f206e6f6e2d636f6e7472616374000000604082015260600190565b6020808252602a908201527f5361666545524332303a204552433230206f7065726174696f6e20646964206e6040820152691bdd081cdd58d8d9595960b21b606082015260800190565b60208082526036908201527f5361666545524332303a20617070726f76652066726f6d206e6f6e2d7a65726f60408201527f20746f206e6f6e2d7a65726f20616c6c6f77616e636500000000000000000000606082015260800190565b60005b8381101562000801578181015183820152602001620007e7565b8381111562000811576000848401525b50505050565b6001600160a01b03811681146200082d57600080fd5b50565b612f0d80620008406000396000f3fe608060405234801561001057600080fd5b506004361061023d5760003560e01c80636718835f1161013b578063aced1661116100b8578063ed882c2b1161007c578063ed882c2b1461042b578063efbb5cb01461043e578063f017c92f14610446578063fbfa77cf14610459578063fcf2d0ad146104615761023d565b8063aced1661146103e2578063b252720b146103ea578063c7b9d530146103f2578063ce5494bb14610405578063ec38a862146104185761023d565b80638e6350e2116100ff5780638e6350e2146103a457806391397ab4146103ac57806395e80c50146103bf5780639ec5a894146103c7578063ac00ff26146103cf5761023d565b80636718835f1461035b578063748747e614610363578063750521f514610376578063780022a0146103895780638cdfe1661461039c5761023d565b806325829410116101c957806339a172a81161018d57806339a172a81461031d578063440368a3146103305780634641257d146103385780635641ec0314610340578063650d1880146103485761023d565b806325829410146102ea578063286a876b146102f257806328b7ccf7146102fa5780632e1a7d4d14610302578063347e8d8a146103155761023d565b806311bc82451161021057806311bc8245146102905780631d12f28b146102a35780631f1fcd51146102b85780631fe4a686146102cd57806322f3e2d4146102d55761023d565b806301681a621461024257806303ee438c1461025757806306fdde03146102755780630f969b871461027d575b600080fd5b6102556102503660046128fb565b610469565b005b61025f610608565b60405161026c9190612b23565b60405180910390f35b61025f610696565b61025561028b366004612a56565b6106b6565b61025561029e3660046128fb565b610743565b6102ab610844565b60405161026c9190612ddf565b6102c061084a565b60405161026c9190612aa2565b6102c0610859565b6102dd610868565b60405161026c9190612ae9565b61025f61090a565b6102ab610929565b6102ab610a50565b6102ab610310366004612a56565b610a56565b6102c0610ab1565b61025561032b366004612a56565b610ac5565b610255610b47565b610255610d70565b6102dd611249565b6102dd610356366004612a56565b611252565b6102dd61125a565b6102556103713660046128fb565b611263565b61025561038436600461296b565b61130e565b6102ab610397366004612a56565b6113a5565b6102ab6113a8565b6102ab6113ae565b6102556103ba366004612a56565b6113b3565b6102ab611435565b6102c061143b565b6102556103dd366004612933565b61144a565b6102c0611536565b6102c0611545565b6102556104003660046128fb565b611559565b6102556104133660046128fb565b611604565b6102556104263660046128fb565b611752565b6102dd610439366004612a56565b6118e5565b6102ab611b6f565b610255610454366004612a56565b611c02565b6102c0611c84565b610255611c93565b610471611fd0565b6001600160a01b0316336001600160a01b0316146104aa5760405162461bcd60e51b81526004016104a190612cf6565b60405180910390fd5b6006546001600160a01b03828116911614156104d85760405162461bcd60e51b81526004016104a190612b7b565b6002546001600160a01b03828116911614156105065760405162461bcd60e51b81526004016104a190612c9e565b606061051061204d565b905060005b815181101561056b5781818151811061052a57fe5b60200260200101516001600160a01b0316836001600160a01b031614156105635760405162461bcd60e51b81526004016104a190612d65565b600101610515565b50610604610577611fd0565b6040516370a0823160e01b81526001600160a01b038516906370a08231906105a3903090600401612aa2565b60206040518083038186803b1580156105bb57600080fd5b505afa1580156105cf573d6000803e3d6000fd5b505050506040513d601f19601f820116820180604052508101906105f39190612a6e565b6001600160a01b0385169190612052565b5050565b6000805460408051602060026001851615610100026000190190941693909304601f8101849004840282018401909252818152929183018282801561068e5780601f106106635761010080835404028352916020019161068e565b820191906000526020600020905b81548152906001019060200180831161067157829003601f168201915b505050505081565b6060604051806060016040528060218152602001612eb760219139905090565b6003546001600160a01b03163314806106e757506106d2611fd0565b6001600160a01b0316336001600160a01b0316145b6107035760405162461bcd60e51b81526004016104a190612cf6565b600a8190556040517fa68ba126373d04c004c5748c300c9fca12bd444b3d4332e261f3bd2bac4a860090610738908390612ddf565b60405180910390a150565b600260009054906101000a90046001600160a01b03166001600160a01b03166388a8d6026040518163ffffffff1660e01b815260040160206040518083038186803b15801561079157600080fd5b505afa1580156107a5573d6000803e3d6000fd5b505050506040513d601f19601f820116820180604052508101906107c99190612917565b6001600160a01b0316336001600160a01b0316148061080057506107eb611fd0565b6001600160a01b0316336001600160a01b0316145b61081c5760405162461bcd60e51b81526004016104a190612cf6565b600180546001600160a01b0390921661010002610100600160a81b0319909216919091179055565b600a5481565b6006546001600160a01b031681565b6003546001600160a01b031681565b6002546040516339ebf82360e01b815260009182916001600160a01b03909116906339ebf8239061089d903090600401612aa2565b6101206040518083038186803b1580156108b657600080fd5b505afa1580156108ca573d6000803e3d6000fd5b505050506040513d601f19601f820116820180604052508101906108ee91906129d8565b60400151118061090557506000610903611b6f565b115b905090565b604080518082019091526005815264302e342e3360d81b602082015290565b6000610905670de0b6b3a7640000610a4a600b60019054906101000a90046001600160a01b03166001600160a01b03166399530b066040518163ffffffff1660e01b815260040160206040518083038186803b15801561098857600080fd5b505afa15801561099c573d6000803e3d6000fd5b505050506040513d601f19601f820116820180604052508101906109c09190612a6e565b600b546040516370a0823160e01b81526101009091046001600160a01b0316906370a08231906109f4903090600401612aa2565b60206040518083038186803b158015610a0c57600080fd5b505afa158015610a20573d6000803e3d6000fd5b505050506040513d601f19601f82011682018060405250810190610a449190612a6e565b90612071565b906120b4565b60085481565b6002546000906001600160a01b03163314610a835760405162461bcd60e51b81526004016104a190612c7e565b6000610a8e836120f6565b600654909350909150610aab906001600160a01b03163383612052565b50919050565b600b5461010090046001600160a01b031681565b6003546001600160a01b0316331480610af65750610ae1611fd0565b6001600160a01b0316336001600160a01b0316145b610b125760405162461bcd60e51b81526004016104a190612cf6565b60078190556040517fbb2c369a0355a34b02ab5fce0643150c87e1c8dfe7c918d465591879f57948b190610738908390612ddf565b6005546001600160a01b0316331480610b6a57506003546001600160a01b031633145b80610b8d5750610b78611fd0565b6001600160a01b0316336001600160a01b0316145b80610c2e5750600260009054906101000a90046001600160a01b03166001600160a01b031663452a93206040518163ffffffff1660e01b815260040160206040518083038186803b158015610be157600080fd5b505afa158015610bf5573d6000803e3d6000fd5b505050506040513d601f19601f82011682018060405250810190610c199190612917565b6001600160a01b0316336001600160a01b0316145b80610ccf5750600260009054906101000a90046001600160a01b03166001600160a01b03166388a8d6026040518163ffffffff1660e01b815260040160206040518083038186803b158015610c8257600080fd5b505afa158015610c96573d6000803e3d6000fd5b505050506040513d601f19601f82011682018060405250810190610cba9190612917565b6001600160a01b0316336001600160a01b0316145b610ceb5760405162461bcd60e51b81526004016104a190612cf6565b6002546040805163bf3759b560e01b81529051610d6e926001600160a01b03169163bf3759b5916004808301926020929190829003018186803b158015610d3157600080fd5b505afa158015610d45573d6000803e3d6000fd5b505050506040513d601f19601f82011682018060405250810190610d699190612a6e565b6122d6565b565b6005546001600160a01b0316331480610d9357506003546001600160a01b031633145b80610db65750610da1611fd0565b6001600160a01b0316336001600160a01b0316145b80610e575750600260009054906101000a90046001600160a01b03166001600160a01b031663452a93206040518163ffffffff1660e01b815260040160206040518083038186803b158015610e0a57600080fd5b505afa158015610e1e573d6000803e3d6000fd5b505050506040513d601f19601f82011682018060405250810190610e429190612917565b6001600160a01b0316336001600160a01b0316145b80610ef85750600260009054906101000a90046001600160a01b03166001600160a01b03166388a8d6026040518163ffffffff1660e01b815260040160206040518083038186803b158015610eab57600080fd5b505afa158015610ebf573d6000803e3d6000fd5b505050506040513d601f19601f82011682018060405250810190610ee39190612917565b6001600160a01b0316336001600160a01b0316145b610f145760405162461bcd60e51b81526004016104a190612cf6565b6000806000600260009054906101000a90046001600160a01b03166001600160a01b031663bf3759b56040518163ffffffff1660e01b815260040160206040518083038186803b158015610f6757600080fd5b505afa158015610f7b573d6000803e3d6000fd5b505050506040513d601f19601f82011682018060405250810190610f9f9190612a6e565b600b5490915060009060ff1615610ffc576000610fba612471565b905082811015610fd557610fce838261257c565b9350610fea565b82811115610fea57610fe7818461257c565b94505b610ff4838561257c565b91505061100d565b611005826125be565b919550935090505b6002546040516339ebf82360e01b81526000916001600160a01b0316906339ebf8239061103e903090600401612aa2565b6101206040518083038186803b15801561105757600080fd5b505afa15801561106b573d6000803e3d6000fd5b505050506040513d601f19601f8201168201806040525081019061108f91906129d8565b60c001516002546040516328766ebf60e21b81529192506001600160a01b03169063a1d9bafc906110c890889088908790600401612de8565b602060405180830381600087803b1580156110e257600080fd5b505af11580156110f6573d6000803e3d6000fd5b505050506040513d601f19601f8201168201806040525081019061111a9190612a6e565b9250611125836122d6565b60015460ff168015611146575060015461010090046001600160a01b031615155b156111f85760015460405163c70fa00b60e01b81526101009091046001600160a01b03169063c70fa00b906111879088908890879089908890600401612e19565b60206040518083038186803b15801561119f57600080fd5b505afa1580156111b3573d6000803e3d6000fd5b505050506040513d601f19601f820116820180604052508101906111d7919061294f565b6111f35760405162461bcd60e51b81526004016104a190612bd1565b611205565b6001805460ff1916811790555b7f4c0f499ffe6befa0ca7c826b0916cf87bea98de658013e76938489368d60d5098585848660405161123a9493929190612dfe565b60405180910390a15050505050565b600b5460ff1681565b60005b919050565b60015460ff1681565b6003546001600160a01b0316331480611294575061127f611fd0565b6001600160a01b0316336001600160a01b0316145b6112b05760405162461bcd60e51b81526004016104a190612cf6565b6001600160a01b0381166112c357600080fd5b600580546001600160a01b0319166001600160a01b0383161790556040517f2f202ddb4a2e345f6323ed90f8fc8559d770a7abbbeee84dde8aca3351fe715490610738908390612aa2565b6003546001600160a01b031633148061133f575061132a611fd0565b6001600160a01b0316336001600160a01b0316145b61135b5760405162461bcd60e51b81526004016104a190612cf6565b6113676000838361281c565b507f300e67d5a415b6d015a471d9c7b95dd58f3e8290af965e84e0f845de2996dda68282604051611399929190612af4565b60405180910390a15050565b90565b60095481565b600090565b6003546001600160a01b03163314806113e457506113cf611fd0565b6001600160a01b0316336001600160a01b0316145b6114005760405162461bcd60e51b81526004016104a190612cf6565b60098190556040517fd94596337df4c2f0f44d30a7fc5db1c7bb60d9aca4185ed77c6fd96eb45ec29890610738908390612ddf565b60075481565b6004546001600160a01b031681565b600260009054906101000a90046001600160a01b03166001600160a01b03166388a8d6026040518163ffffffff1660e01b815260040160206040518083038186803b15801561149857600080fd5b505afa1580156114ac573d6000803e3d6000fd5b505050506040513d601f19601f820116820180604052508101906114d09190612917565b6001600160a01b0316336001600160a01b0316148061150757506114f2611fd0565b6001600160a01b0316336001600160a01b0316145b6115235760405162461bcd60e51b81526004016104a190612cf6565b6001805460ff1916911515919091179055565b6005546001600160a01b031681565b60015461010090046001600160a01b031681565b6003546001600160a01b031633148061158a5750611575611fd0565b6001600160a01b0316336001600160a01b0316145b6115a65760405162461bcd60e51b81526004016104a190612cf6565b6001600160a01b0381166115b957600080fd5b600380546001600160a01b0319166001600160a01b0383161790556040517f352ececae6d7d1e6d26bcf2c549dfd55be1637e9b22dc0cf3b71ddb36097a6b490610738908390612aa2565b6002546001600160a01b0316331461161b57600080fd5b6002546040805163fbfa77cf60e01b815290516001600160a01b039283169284169163fbfa77cf916004808301926020929190829003018186803b15801561166257600080fd5b505afa158015611676573d6000803e3d6000fd5b505050506040513d601f19601f8201168201806040525081019061169a9190612917565b6001600160a01b0316146116ad57600080fd5b6116b68161174f565b6006546040516370a0823160e01b815261174f9183916001600160a01b03909116906370a08231906116ec903090600401612aa2565b60206040518083038186803b15801561170457600080fd5b505afa158015611718573d6000803e3d6000fd5b505050506040513d601f19601f8201168201806040525081019061173c9190612a6e565b6006546001600160a01b03169190612052565b50565b6003546001600160a01b0316331461177c5760405162461bcd60e51b81526004016104a190612b56565b6001600160a01b03811661178f57600080fd5b6002546004805460405163095ea7b360e01b81526001600160a01b039384169363095ea7b3936117c6939091169160009101612ad0565b602060405180830381600087803b1580156117e057600080fd5b505af11580156117f4573d6000803e3d6000fd5b505050506040513d601f19601f82011682018060405250810190611818919061294f565b50600480546001600160a01b0319166001600160a01b038381169190911780835560025460405163095ea7b360e01b81529083169363095ea7b3936118639316916000199101612ad0565b602060405180830381600087803b15801561187d57600080fd5b505af1158015611891573d6000803e3d6000fd5b505050506040513d601f19601f820116820180604052508101906118b5919061294f565b507fafbb66abf8f3b719799940473a4052a3717cdd8e40fb6c8a3faadab316b1a069816040516107389190612aa2565b6000806118f1836113a5565b90506118fb61289a565b6002546040516339ebf82360e01b81526001600160a01b03909116906339ebf8239061192b903090600401612aa2565b6101206040518083038186803b15801561194457600080fd5b505afa158015611958573d6000803e3d6000fd5b505050506040513d601f19601f8201168201806040525081019061197c91906129d8565b905080602001516000141561199657600092505050611255565b60075460a08201516119a990429061257c565b10156119ba57600092505050611255565b60085460a08201516119cd90429061257c565b106119dd57600192505050611255565b6002546040805163bf3759b560e01b815290516000926001600160a01b03169163bf3759b5916004808301926020929190829003018186803b158015611a2257600080fd5b505afa158015611a36573d6000803e3d6000fd5b505050506040513d601f19601f82011682018060405250810190611a5a9190612a6e565b9050600a54811115611a725760019350505050611255565b6000611a7c611b6f565b90508260c00151611a98600a54836125ef90919063ffffffff16565b1015611aab576001945050505050611255565b60008360c00151821115611acc5760c0840151611ac990839061257c565b90505b6002546040805163112c1f9b60e01b815290516000926001600160a01b03169163112c1f9b916004808301926020929190829003018186803b158015611b1157600080fd5b505afa158015611b25573d6000803e3d6000fd5b505050506040513d601f19601f82011682018060405250810190611b499190612a6e565b9050611b5581836125ef565b600954611b629088612071565b1098975050505050505050565b6000610905611b7c610929565b6006546040516370a0823160e01b81526001600160a01b03909116906370a0823190611bac903090600401612aa2565b60206040518083038186803b158015611bc457600080fd5b505afa158015611bd8573d6000803e3d6000fd5b505050506040513d601f19601f82011682018060405250810190611bfc9190612a6e565b906125ef565b6003546001600160a01b0316331480611c335750611c1e611fd0565b6001600160a01b0316336001600160a01b0316145b611c4f5760405162461bcd60e51b81526004016104a190612cf6565b60088190556040517f5430e11864ad7aa9775b07d12657fe52df9aa2ba734355bd8ef8747be2c800c590610738908390612ddf565b6002546001600160a01b031681565b6003546001600160a01b0316331480611cc45750611caf611fd0565b6001600160a01b0316336001600160a01b0316145b80611d655750600260009054906101000a90046001600160a01b03166001600160a01b031663452a93206040518163ffffffff1660e01b815260040160206040518083038186803b158015611d1857600080fd5b505afa158015611d2c573d6000803e3d6000fd5b505050506040513d601f19601f82011682018060405250810190611d509190612917565b6001600160a01b0316336001600160a01b0316145b80611e065750600260009054906101000a90046001600160a01b03166001600160a01b03166388a8d6026040518163ffffffff1660e01b815260040160206040518083038186803b158015611db957600080fd5b505afa158015611dcd573d6000803e3d6000fd5b505050506040513d601f19601f82011682018060405250810190611df19190612917565b6001600160a01b0316336001600160a01b0316145b611e225760405162461bcd60e51b81526004016104a190612cf6565b600b805460ff191660011790556002546040805163507257cd60e11b815290516001600160a01b039092169163a0e4af9a9160048082019260009290919082900301818387803b158015611e7557600080fd5b505af1158015611e89573d6000803e3d6000fd5b50506040517f97e963041e952738788b9d4871d854d282065b8f90a464928d6528f2e9a4fd0b925060009150a1565b801580611f405750604051636eb1769f60e11b81526001600160a01b0384169063dd62ed3e90611eee9030908690600401612ab6565b60206040518083038186803b158015611f0657600080fd5b505afa158015611f1a573d6000803e3d6000fd5b505050506040513d601f19601f82011682018060405250810190611f3e9190612a6e565b155b611f5c5760405162461bcd60e51b81526004016104a190612d89565b611fb28363095ea7b360e01b8484604051602401611f7b929190612ad0565b60408051601f198184030181529190526020810180516001600160e01b03166001600160e01b031990931692909217909152612614565b505050565b6060611fc684846000856126a3565b90505b9392505050565b60025460408051635aa6e67560e01b815290516000926001600160a01b031691635aa6e675916004808301926020929190829003018186803b15801561201557600080fd5b505afa158015612029573d6000803e3d6000fd5b505050506040513d601f19601f820116820180604052508101906109059190612917565b606090565b611fb28363a9059cbb60e01b8484604051602401611f7b929190612ad0565b600082612080575060006120ae565b8282028284828161208d57fe5b04146120ab5760405162461bcd60e51b81526004016104a190612c3d565b90505b92915050565b60006120ab83836040518060400160405280601a81526020017f536166654d6174683a206469766973696f6e206279207a65726f000000000000815250612764565b6006546040516370a0823160e01b8152600091829182916001600160a01b0316906370a082319061212b903090600401612aa2565b60206040518083038186803b15801561214357600080fd5b505afa158015612157573d6000803e3d6000fd5b505050506040513d601f19601f8201168201806040525081019061217b9190612a6e565b90508084111561222c57600061218f610929565b600b5490915061010090046001600160a01b0316632e1a7d4d6121bb836121b6898761257c565b61279b565b6040518263ffffffff1660e01b81526004016121d79190612ddf565b602060405180830381600087803b1580156121f157600080fd5b505af1158015612205573d6000803e3d6000fd5b505050506040513d601f19601f820116820180604052508101906122299190612a6e565b50505b6006546040516370a0823160e01b81526000916001600160a01b0316906370a082319061225d903090600401612aa2565b60206040518083038186803b15801561227557600080fd5b505afa158015612289573d6000803e3d6000fd5b505050506040513d601f19601f820116820180604052508101906122ad9190612a6e565b9050808511156122cb579250826122c4858261257c565b92506122cf565b8493505b5050915091565b6006546040516370a0823160e01b815282916001600160a01b0316906370a0823190612306903090600401612aa2565b60206040518083038186803b15801561231e57600080fd5b505afa158015612332573d6000803e3d6000fd5b505050506040513d601f19601f820116820180604052508101906123569190612a6e565b111561174f576006546040516370a0823160e01b81526000916123e99184916001600160a01b0316906370a0823190612393903090600401612aa2565b60206040518083038186803b1580156123ab57600080fd5b505afa1580156123bf573d6000803e3d6000fd5b505050506040513d601f19601f820116820180604052508101906123e39190612a6e565b9061257c565b600b5460405163b6b55f2560e01b815291925061010090046001600160a01b03169063b6b55f259061241f908490600401612ddf565b602060405180830381600087803b15801561243957600080fd5b505af115801561244d573d6000803e3d6000fd5b505050506040513d601f19601f82011682018060405250810190611fb29190612a6e565b6000600b60019054906101000a90046001600160a01b03166001600160a01b0316633ccfd60b6040518163ffffffff1660e01b8152600401602060405180830381600087803b1580156124c357600080fd5b505af11580156124d7573d6000803e3d6000fd5b505050506040513d601f19601f820116820180604052508101906124fb9190612a6e565b506006546040516370a0823160e01b81526001600160a01b03909116906370a082319061252c903090600401612aa2565b60206040518083038186803b15801561254457600080fd5b505afa158015612558573d6000803e3d6000fd5b505050506040513d601f19601f820116820180604052508101906109059190612a6e565b60006120ab83836040518060400160405280601e81526020017f536166654d6174683a207375627472616374696f6e206f766572666c6f7700008152506127b1565b6000808083156125e55760006125d3856120f6565b935090506125e1818661279b565b9150505b6000949193509150565b6000828201838110156120ab5760405162461bcd60e51b81526004016104a190612b9a565b6060612669826040518060400160405280602081526020017f5361666545524332303a206c6f772d6c6576656c2063616c6c206661696c6564815250856001600160a01b0316611fb79092919063ffffffff16565b805190915015611fb25780806020019051810190612687919061294f565b611fb25760405162461bcd60e51b81526004016104a190612d1b565b6060824710156126c55760405162461bcd60e51b81526004016104a190612bf7565b6126ce856127dd565b6126ea5760405162461bcd60e51b81526004016104a190612cbf565b60006060866001600160a01b031685876040516127079190612a86565b60006040518083038185875af1925050503d8060008114612744576040519150601f19603f3d011682016040523d82523d6000602084013e612749565b606091505b50915091506127598282866127e3565b979650505050505050565b600081836127855760405162461bcd60e51b81526004016104a19190612b23565b50600083858161279157fe5b0495945050505050565b60008183106127aa57816120ab565b5090919050565b600081848411156127d55760405162461bcd60e51b81526004016104a19190612b23565b505050900390565b3b151590565b606083156127f2575081611fc9565b8251156128025782518084602001fd5b8160405162461bcd60e51b81526004016104a19190612b23565b828054600181600116156101000203166002900490600052602060002090601f016020900481019282601f1061285d5782800160ff1982351617855561288a565b8280016001018555821561288a579182015b8281111561288a57823582559160200191906001019061286f565b506128969291506128e6565b5090565b6040518061012001604052806000815260200160008152602001600081526020016000815260200160008152602001600081526020016000815260200160008152602001600081525090565b5b8082111561289657600081556001016128e7565b60006020828403121561290c578081fd5b81356120ab81612e93565b600060208284031215612928578081fd5b81516120ab81612e93565b600060208284031215612944578081fd5b81356120ab81612ea8565b600060208284031215612960578081fd5b81516120ab81612ea8565b6000806020838503121561297d578081fd5b823567ffffffffffffffff80821115612994578283fd5b818501915085601f8301126129a7578283fd5b8135818111156129b5578384fd5b8660208285010111156129c6578384fd5b60209290920196919550909350505050565b60006101208083850312156129eb578182fd5b6129f481612e3c565b9050825181526020830151602082015260408301516040820152606083015160608201526080830151608082015260a083015160a082015260c083015160c082015260e083015160e08201526101008084015181830152508091505092915050565b600060208284031215612a67578081fd5b5035919050565b600060208284031215612a7f578081fd5b5051919050565b60008251612a98818460208701612e63565b9190910192915050565b6001600160a01b0391909116815260200190565b6001600160a01b0392831681529116602082015260400190565b6001600160a01b03929092168252602082015260400190565b901515815260200190565b60006020825282602083015282846040840137818301604090810191909152601f909201601f19160101919050565b6000602082528251806020840152612b42816040850160208701612e63565b601f01601f19169190910160400192915050565b6020808252600b908201526a085cdd1c985d1959da5cdd60aa1b604082015260600190565b602080825260059082015264085dd85b9d60da1b604082015260600190565b6020808252601b908201527f536166654d6174683a206164646974696f6e206f766572666c6f770000000000604082015260600190565b6020808252600c908201526b216865616c7468636865636b60a01b604082015260600190565b60208082526026908201527f416464726573733a20696e73756666696369656e742062616c616e636520666f6040820152651c8818d85b1b60d21b606082015260800190565b60208082526021908201527f536166654d6174683a206d756c7469706c69636174696f6e206f766572666c6f6040820152607760f81b606082015260800190565b602080825260069082015265085d985d5b1d60d21b604082015260600190565b6020808252600790820152662173686172657360c81b604082015260600190565b6020808252601d908201527f416464726573733a2063616c6c20746f206e6f6e2d636f6e7472616374000000604082015260600190565b6020808252600b908201526a08585d5d1a1bdc9a5e995960aa1b604082015260600190565b6020808252602a908201527f5361666545524332303a204552433230206f7065726174696f6e20646964206e6040820152691bdd081cdd58d8d9595960b21b606082015260800190565b6020808252600a9082015269085c1c9bdd1958dd195960b21b604082015260600190565b60208082526036908201527f5361666545524332303a20617070726f76652066726f6d206e6f6e2d7a65726f60408201527520746f206e6f6e2d7a65726f20616c6c6f77616e636560501b606082015260800190565b90815260200190565b9283526020830191909152604082015260600190565b93845260208401929092526040830152606082015260800190565b948552602085019390935260408401919091526060830152608082015260a00190565b60405181810167ffffffffffffffff81118282101715612e5b57600080fd5b604052919050565b60005b83811015612e7e578181015183820152602001612e66565b83811115612e8d576000848401525b50505050565b6001600160a01b038116811461174f57600080fd5b801515811461174f57600080fdfe53747261746567793c50726f746f636f6c4e616d653e3c546f6b656e547970653ea26469706673582212204fea8f636d456d1826a8ddcb29155fd26aa2e8a8f5cc7d70f24abaff7768e34764736f6c634300060c0033",
  "bytecodeSha1": "0767ee7953d5ef8ef820ebcb8f0dd920bf02abae",
  "compiler": {
    "evm_version": "istanbul",
    "optimizer": {
      "enabled": true,
      "runs": 200
    },
    "version": "0.6.12+commit.27d51765"
  },
  "contractName": "Strategy",
  "language": "Solidity",
  "natspec": {
    "kind": "dev",
    "methods": {
      "apiVersion()": {
        "details": "The Strategy's version must match the Vault's `API_VERSION`.",
        "notice": "Used to track which version of `StrategyAPI` this Strategy  implements.",
        "returns": {
          "_0": "A string which holds the current API version of this contract."
        }
      },
      "delegatedAssets()": {
        "details": "You can override this field to set it to a non-zero value if some of the assets of this  Strategy is somehow delegated inside another part of of Yearn's ecosystem e.g. another Vault.  Note that this value must be strictly less than or equal to the amount provided by  `estimatedTotalAssets()` below, as the TVL calc will be total assets minus delegated assets.  Also note that this value is used to determine the total assets under management by this  strategy, for the purposes of computing the management fee in `Vault`",
        "notice": "The amount (priced in want) of the total assets managed by this strategy should not count  towards Yearn's TVL calculations.",
        "returns": {
          "_0": "The amount of assets this strategy manages that should not be included in Yearn's Total Value  Locked (TVL) calculation across it's ecosystem."
        }
      },
      "estimatedTotalAssets()": {
        "details": "Care must be taken in using this function, since it relies on external  systems, which could be manipulated by the attacker to give an inflated  (or reduced) value produced by this function, based on current on-chain  conditions (e.g. this function is possible to influence through  flashloan attacks, oracle manipulations, or other DeFi attack  mechanisms).  It is up to governance to use this function to correctly order this  Strategy relative to its peers in the withdrawal queue to minimize  losses for the Vault based on sudden withdrawals. This value should be  higher than the total debt of the Strategy and higher than its expected  value to be \"safe\".",
        "notice": "Provide an accurate estimate for the total amount of assets  (principle + return) that this Strategy is currently managing,  denominated in terms of `want` tokens.  This total should be \"realizable\" e.g. the total value that could  *actually* be obtained from this Strategy if it were to divest its  entire position based on current on-chain conditions.",
        "returns": {
          "_0": "The estimated total assets in this Strategy."
        }
      },
      "ethToWant(uint256)": {
        "details": "Care must be taken when working with decimals to assure that the conversion  is compatible. As an example:      given 1e17 wei (0.1 ETH) as input, and want is USDC (6 decimals),      with USDC/ETH = 1800, this should give back 1800000000 (180 USDC)",
        "notice": "Provide an accurate conversion from `_amtInWei` (denominated in wei)  to `want` (using the native decimal characteristics of `want`).",
        "params": {
          "_amtInWei": "The amount (in wei/1e-18 ETH) to convert to `want`"
        },
        "returns": {
          "_0": "The amount in `want` of `_amtInEth` converted to `want`*"
        }
      },
      "harvest()": {
        "details": "When `harvest()` is called, the Strategy reports to the Vault (via  `vault.report()`), so in some cases `harvest()` must be called in order  to take in profits, to borrow newly available funds from the Vault, or  otherwise adjust its position. In other cases `harvest()` must be  called to report to the Vault on the Strategy's position, especially if  any losses have occurred.",
        "notice": "Harvests the Strategy, recognizing any profits or losses and adjusting  the Strategy's position.  In the rare case the Strategy is in emergency shutdown, this will exit  the Strategy's position.  This may only be called by governance, the strategist, or the keeper."
      },
      "harvestTrigger(uint256)": {
        "details": "`callCostInWei` must be priced in terms of `wei` (1e-18 ETH).  This call and `tendTrigger` should never return `true` at the  same time.  See `min/maxReportDelay`, `profitFactor`, `debtThreshold` to adjust the  strategist-controlled parameters that will influence whether this call  returns `true` or not. These parameters will be used in conjunction  with the parameters reported to the Vault (see `params`) to determine  if calling `harvest()` is merited.  It is expected that an external system will check `harvestTrigger()`.  This could be a script run off a desktop or cloud bot (e.g.  https://github.com/iearn-finance/yearn-vaults/blob/main/scripts/keep.py),  or via an integration with the Keep3r network (e.g.  https://github.com/Macarse/GenericKeep3rV2/blob/master/contracts/keep3r/GenericKeep3rV2.sol).",
        "notice": "Provide a signal to the keeper that `harvest()` should be called. The  keeper will provide the estimated gas cost that they would pay to call  `harvest()`, and this function should use that estimate to make a  determination if calling it is \"worth it\" for the keeper. This is not  the only consideration into issuing this trigger, for example if the  position would be negatively affected if `harvest()` is not called  shortly, then this can return `true` even if the keeper might be \"at a  loss\" (keepers are always reimbursed by Yearn).",
        "params": {
          "callCostInWei": "The keeper's estimated gas cost to call `harvest()` (in wei)."
        },
        "returns": {
          "_0": "`true` if `harvest()` should be called, `false` otherwise."
        }
      },
      "migrate(address)": {
        "details": "The new Strategy's Vault must be the same as this Strategy's Vault.  The migration process should be carefully performed to make sure all the assets are migrated to the new address, which should have never interacted with the vault before.",
        "notice": "Transfers all `want` from this Strategy to `_newStrategy`.  This may only be called by the Vault.",
        "params": {
          "_newStrategy": "The Strategy to migrate to."
        }
      },
      "name()": {
        "details": "You can use this field to manage the \"version\" of this Strategy, e.g.  `StrategySomethingOrOtherV1`. However, \"API Version\" is managed by  `apiVersion()` function above.",
        "notice": "This Strategy's name.",
        "returns": {
          "_0": "This Strategy's name."
        }
      },
      "setDebtThreshold(uint256)": {
        "notice": "Sets how far the Strategy can go into loss without a harvest and report  being required.  By default this is 0, meaning any losses would cause a harvest which  will subsequently report the loss to the Vault for tracking. (See  `harvestTrigger()` for more details.)  This may only be called by governance or the strategist.",
        "params": {
          "_debtThreshold": "How big of a loss this Strategy may carry without being required to report to the Vault."
        }
      },
      "setEmergencyExit()": {
        "details": "See `vault.setEmergencyShutdown()` and `harvest()` for further details.",
        "notice": "Activates emergency exit. Once activated, the Strategy will exit its  position upon the next harvest, depositing all funds into the Vault as  quickly as is reasonable given on-chain conditions.  This may only be called by governance or the strategist."
      },
      "setKeeper(address)": {
        "notice": "Used to change `keeper`.  `keeper` is the only address that may call `tend()` or `harvest()`,  other than `governance()` or `strategist`. However, unlike  `governance()` or `strategist`, `keeper` may *only* call `tend()`  and `harvest()`, and no other authorized functions, following the  principle of least privilege.  This may only be called by governance or the strategist.",
        "params": {
          "_keeper": "The new address to assign as `keeper`."
        }
      },
      "setMaxReportDelay(uint256)": {
        "notice": "Used to change `maxReportDelay`. `maxReportDelay` is the maximum number  of blocks that should pass for `harvest()` to be called.  For external keepers (such as the Keep3r network), this is the maximum  time between jobs to wait. (see `harvestTrigger()`  for more details.)  This may only be called by governance or the strategist.",
        "params": {
          "_delay": "The maximum number of seconds to wait between harvests."
        }
      },
      "setMetadataURI(string)": {
        "notice": "Used to change `metadataURI`. `metadataURI` is used to store the URI of the file describing the strategy.  This may only be called by governance or the strategist.",
        "params": {
          "_metadataURI": "The URI that describe the strategy."
        }
      },
      "setMinReportDelay(uint256)": {
        "notice": "Used to change `minReportDelay`. `minReportDelay` is the minimum number  of blocks that should pass for `harvest()` to be called.  For external keepers (such as the Keep3r network), this is the minimum  time between jobs to wait. (see `harvestTrigger()`  for more details.)  This may only be called by governance or the strategist.",
        "params": {
          "_delay": "The minimum number of seconds to wait between harvests."
        }
      },
      "setProfitFactor(uint256)": {
        "notice": "Used to change `profitFactor`. `profitFactor` is used to determine  if it's worthwhile to harvest, given gas costs. (See `harvestTrigger()`  for more details.)  This may only be called by governance or the strategist.",
        "params": {
          "_profitFactor": "A ratio to multiply anticipated `harvest()` gas cost against."
        }
      },
      "setRewards(address)": {
        "notice": "Used to change `rewards`. EOA or smart contract which has the permission  to pull rewards from the vault.  This may only be called by the strategist.",
        "params": {
          "_rewards": "The address to use for pulling rewards."
        }
      },
      "setStrategist(address)": {
        "notice": "Used to change `strategist`.  This may only be called by governance or the existing strategist.",
        "params": {
          "_strategist": "The new address to assign as `strategist`."
        }
      },
      "sweep(address)": {
        "details": "Implement `protectedTokens()` to specify any additional tokens that  should be protected from sweeping in addition to `want`.",
        "notice": "Removes tokens from this Strategy that are not the type of tokens  managed by this Strategy. This may be used in case of accidentally  sending the wrong kind of token to this Strategy.  Tokens will be sent to `governance()`.  This will fail if an attempt is made to sweep `want`, or any tokens  that are protected by this Strategy.  This may only be called by governance.",
        "params": {
          "_token": "The token to transfer out of this vault."
        }
      },
      "tend()": {
        "notice": "Adjust the Strategy's position. The purpose of tending isn't to  realize gains, but to maximize yield by reinvesting any returns.  See comments on `adjustPosition()`.  This may only be called by governance, the strategist, or the keeper."
      },
      "tendTrigger(uint256)": {
        "details": "`callCostInWei` must be priced in terms of `wei` (1e-18 ETH).  This call and `harvestTrigger()` should never return `true` at the same  time.",
        "notice": "Provide a signal to the keeper that `tend()` should be called. The  keeper will provide the estimated gas cost that they would pay to call  `tend()`, and this function should use that estimate to make a  determination if calling it is \"worth it\" for the keeper. This is not  the only consideration into issuing this trigger, for example if the  position would be negatively affected if `tend()` is not called  shortly, then this can return `true` even if the keeper might be  \"at a loss\" (keepers are always reimbursed by Yearn).",
        "params": {
          "callCostInWei": "The keeper's estimated gas cost to call `tend()` (in wei)."
        },
        "returns": {
          "_0": "`true` if `tend()` should be called, `false` otherwise."
        }
      },
      "withdraw(uint256)": {
        "notice": "Withdraws `_amountNeeded` to `vault`.  This may only be called by the Vault.",
        "params": {
          "_amountNeeded": "How much `want` to withdraw."
        },
        "returns": {
          "_loss": "Any realized losses"
        }
      }
    },
    "version": 1
  },
  "opcodes": "PUSH1 0x80 PUSH1 0x40 MSTORE CALLVALUE DUP1 ISZERO PUSH2 0x10 JUMPI PUSH1 0x0 DUP1 REVERT JUMPDEST POP PUSH1 0x4 CALLDATASIZE LT PUSH2 0x23D JUMPI PUSH1 0x0 CALLDATALOAD PUSH1 0xE0 SHR DUP1 PUSH4 0x6718835F GT PUSH2 0x13B JUMPI DUP1 PUSH4 0xACED1661 GT PUSH2 0xB8 JUMPI DUP1 PUSH4 0xED882C2B GT PUSH2 0x7C JUMPI DUP1 PUSH4 0xED882C2B EQ PUSH2 0x42B JUMPI DUP1 PUSH4 0xEFBB5CB0 EQ PUSH2 0x43E JUMPI DUP1 PUSH4 0xF017C92F EQ PUSH2 0x446 JUMPI DUP1 PUSH4 0xFBFA77CF EQ PUSH2 0x459 JUMPI DUP1 PUSH4 0xFCF2D0AD EQ PUSH2 0x461 JUMPI PUSH2 0x23D JUMP JUMPDEST DUP1 PUSH4 0xACED1661 EQ PUSH2 0x3E2 JUMPI DUP1 PUSH4 0xB252720B EQ PUSH2 0x3EA JUMPI DUP1 PUSH4 0xC7B9D530 EQ PUSH2 0x3F2 JUMPI DUP1 PUSH4 0xCE5494BB EQ PUSH2 0x405 JUMPI DUP1 PUSH4 0xEC38A862 EQ PUSH2 0x418 JUMPI PUSH2 0x23D JUMP JUMPDEST DUP1 PUSH4 0x8E6350E2 GT PUSH2 0xFF JUMPI DUP1 PUSH4 0x8E6350E2 EQ PUSH2 0x3A4 JUMPI DUP1 PUSH4 0x91397AB4 EQ PUSH2 0x3AC JUMPI DUP1 PUSH4 0x95E80C50 EQ PUSH2 0x3BF JUMPI DUP1 PUSH4 0x9EC5A894 EQ PUSH2 0x3C7 JUMPI DUP1 PUSH4 0xAC00FF26 EQ PUSH2 0x3CF JUMPI PUSH2 0x23D JUMP JUMPDEST DUP1 PUSH4 0x6718835F EQ PUSH2 0x35B JUMPI DUP1 PUSH4 0x748747E6 EQ PUSH2 0x363 JUMPI DUP1 PUSH4 0x750521F5 EQ PUSH2 0x376 JUMPI DUP1 PUSH4 0x780022A0 EQ PUSH2 0x389 JUMPI DUP1 PUSH4 0x8CDFE166 EQ PUSH2 0x39C JUMPI PUSH2 0x23D JUMP JUMPDEST DUP1 PUSH4 0x25829410 GT PUSH2 0x1C9 JUMPI DUP1 PUSH4 0x39A172A8 GT PUSH2 0x18D JUMPI DUP1 PUSH4 0x39A172A8 EQ PUSH2 0x31D JUMPI DUP1 PUSH4 0x440368A3 EQ PUSH2 0x330 JUMPI DUP1 PUSH4 0x4641257D EQ PUSH2 0x338 JUMPI DUP1 PUSH4 0x5641EC03 EQ PUSH2 0x340 JUMPI DUP1 PUSH4 0x650D1880 EQ PUSH2 0x348 JUMPI PUSH2 0x23D JUMP JUMPDEST DUP1 PUSH4 0x25829410 EQ PUSH2 0x2EA JUMPI DUP1 PUSH4 0x286A876B EQ PUSH2 0x2F2 JUMPI DUP1 PUSH4 0x28B7CCF7 EQ PUSH2 0x2FA JUMPI DUP1 PUSH4 0x2E1A7D4D EQ PUSH2 0x302 JUMPI DUP1 PUSH4 0x347E8D8A EQ PUSH2 0x315 JUMPI PUSH2 0x23D JUMP JUMPDEST DUP1 PUSH4 0x11BC8245 GT PUSH2 0x210 JUMPI DUP1 PUSH4 0x11BC8245 EQ PUSH2 0x290 JUMPI DUP1 PUSH4 0x1D12F28B EQ PUSH2 0x2A3 JUMPI DUP1 PUSH4 0x1F1FCD51 EQ PUSH2 0x2B8 JUMPI DUP1 PUSH4 0x1FE4A686 EQ PUSH2 0x2CD JUMPI DUP1 PUSH4 0x22F3E2D4 EQ PUSH2 0x2D5 JUMPI PUSH2 0x23D JUMP JUMPDEST DUP1 PUSH4 0x1681A62 EQ PUSH2 0x242 JUMPI DUP1 PUSH4 0x3EE438C EQ PUSH2 0x257 JUMPI DUP1 PUSH4 0x6FDDE03 EQ PUSH2 0x275 JUMPI DUP1 PUSH4 0xF969B87 EQ PUSH2 0x27D JUMPI JUMPDEST PUSH1 0x0 DUP1 REVERT JUMPDEST PUSH2 0x255 PUSH2 0x250 CALLDATASIZE PUSH1 0x4 PUSH2 0x28FB JUMP JUMPDEST PUSH2 0x469 JUMP JUMPDEST STOP JUMPDEST PUSH2 0x25F PUSH2 0x608 JUMP JUMPDEST PUSH1 0x40 MLOAD PUSH2 0x26C SWAP2 SWAP1 PUSH2 0x2B23 JUMP JUMPDEST PUSH1 0x40 MLOAD DUP1 SWAP2 SUB SWAP1 RETURN JUMPDEST PUSH2 0x25F PUSH2 0x696 JUMP JUMPDEST PUSH2 0x255 PUSH2 0x28B CALLDATASIZE PUSH1 0x4 PUSH2 0x2A56 JUMP JUMPDEST PUSH2 0x6B6 JUMP JUMPDEST PUSH2 0x255 PUSH2 0x29E CALLDATASIZE PUSH1 0x4 PUSH2 0x28FB JUMP JUMPDEST PUSH2 0x743 JUMP JUMPDEST PUSH2 0x2AB PUSH2 0x844 JUMP JUMPDEST PUSH1 0x40 MLOAD PUSH2 0x26C SWAP2 SWAP1 PUSH2 0x2DDF JUMP JUMPDEST PUSH2 0x2C0 PUSH2 0x84A JUMP JUMPDEST PUSH1 0x40 MLOAD PUSH2 0x26C SWAP2 SWAP1 PUSH2 0x2AA2 JUMP JUMPDEST PUSH2 0x2C0 PUSH2 0x859 JUMP JUMPDEST PUSH2 0x2DD PUSH2 0x868 JUMP JUMPDEST PUSH1 0x40 MLOAD PUSH2 0x26C SWAP2 SWAP1 PUSH2 0x2AE9 JUMP JUMPDEST PUSH2 0x25F PUSH2 0x90A JUMP JUMPDEST PUSH2 0x2AB PUSH2 0x929 JUMP JUMPDEST PUSH2 0x2AB PUSH2 0xA50 JUMP JUMPDEST PUSH2 0x2AB PUSH2 0x310 CALLDATASIZE PUSH1 0x4 PUSH2 0x2A56 JUMP JUMPDEST PUSH2 0xA56 JUMP JUMPDEST PUSH2 0x2C0 PUSH2 0xAB1 JUMP JUMPDEST PUSH2 0x255 PUSH2 0x32B CALLDATASIZE PUSH1 0x4 PUSH2 0x2A56 JUMP JUMPDEST PUSH2 0xAC5 JUMP JUMPDEST PUSH2 0x255 PUSH2 0xB47 JUMP JUMPDEST PUSH2 0x255 PUSH2 0xD70 JUMP JUMPDEST PUSH2 0x2DD PUSH2 0x1249 JUMP JUMPDEST PUSH2 0x2DD PUSH2 0x356 CALLDATASIZE PUSH1 0x4 PUSH2 0x2A56 JUMP JUMPDEST PUSH2 0x1252 JUMP JUMPDEST PUSH2 0x2DD PUSH2 0x125A JUMP JUMPDEST PUSH2 0x255 PUSH2 0x371 CALLDATASIZE PUSH1 0x4 PUSH2 0x28FB JUMP JUMPDEST PUSH2 0x1263 JUMP JUMPDEST PUSH2 0x255 PUSH2 0x384 CALLDATASIZE PUSH1 0x4 PUSH2 0x296B JUMP JUMPDEST PUSH2 0x130E JUMP JUMPDEST PUSH2 0x2AB PUSH2 0x397 CALLDATASIZE PUSH1 0x4 PUSH2 0x2A56 JUMP JUMPDEST PUSH2 0x13A5 JUMP JUMPDEST PUSH2 0x2AB PUSH2 0x13A8 JUMP JUMPDEST PUSH2 0x2AB PUSH2 0x13AE JUMP JUMPDEST PUSH2 0x255 PUSH2 0x3BA CALLDATASIZE PUSH1 0x4 PUSH2 0x2A56 JUMP JUMPDEST PUSH2 0x13B3 JUMP JUMPDEST PUSH2 0x2AB PUSH2 0x1435 JUMP JUMPDEST PUSH2 0x2C0 PUSH2 0x143B JUMP JUMPDEST PUSH2 0x255 PUSH2 0x3DD CALLDATASIZE PUSH1 0x4 PUSH2 0x2933 JUMP JUMPDEST PUSH2 0x144A JUMP JUMPDEST PUSH2 0x2C0 PUSH2 0x1536 JUMP JUMPDEST PUSH2 0x2C0 PUSH2 0x1545 JUMP JUMPDEST PUSH2 0x255 PUSH2 0x400 CALLDATASIZE PUSH1 0x4 PUSH2 0x28FB JUMP JUMPDEST PUSH2 0x1559 JUMP JUMPDEST PUSH2 0x255 PUSH2 0x413 CALLDATASIZE PUSH1 0x4 PUSH2 0x28FB JUMP JUMPDEST PUSH2 0x1604 JUMP JUMPDEST PUSH2 0x255 PUSH2 0x426 CALLDATASIZE PUSH1 0x4 PUSH2 0x28FB JUMP JUMPDEST PUSH2 0x1752 JUMP JUMPDEST PUSH2 0x2DD PUSH2 0x439 CALLDATASIZE PUSH1 0x4 PUSH2 0x2A56 JUMP JUMPDEST PUSH2 0x18E5 JUMP JUMPDEST PUSH2 0x2AB PUSH2 0x1B6F JUMP JUMPDEST PUSH2 0x255 PUSH2 0x454 CALLDATASIZE PUSH1 0x4 PUSH2 0x2A56 JUMP JUMPDEST PUSH2 0x1C02 JUMP JUMPDEST PUSH2 0x2C0 PUSH2 0x1C84 JUMP JUMPDEST PUSH2 0x255 PUSH2 0x1C93 JUMP JUMPDEST PUSH2 0x471 PUSH2 0x1FD0 JUMP JUMPDEST PUSH1 0x1 PUSH1 0x1 PUSH1 0xA0 SHL SUB AND CALLER PUSH1 0x1 PUSH1 0x1 PUSH1 0xA0 SHL SUB AND EQ PUSH2 0x4AA JUMPI PUSH1 0x40 MLOAD PUSH3 0x461BCD PUSH1 0xE5 SHL DUP2 MSTORE PUSH1 0x4 ADD PUSH2 0x4A1 SWAP1 PUSH2 0x2CF6 JUMP JUMPDEST PUSH1 0x40 MLOAD DUP1 SWAP2 SUB SWAP1 REVERT JUMPDEST PUSH1 0x6 SLOAD PUSH1 0x1 PUSH1 0x1 PUSH1 0xA0 SHL SUB DUP3 DUP2 AND SWAP2 AND EQ ISZERO PUSH2 0x4D8 JUMPI PUSH1 0x40 MLOAD PUSH3 0x461BCD PUSH1 0xE5 SHL DUP2 MSTORE PUSH1 0x4 ADD PUSH2 0x4A1 SWAP1 PUSH2 0x2B7B JUMP JUMPDEST PUSH1 0x2 SLOAD PUSH1 0x1 PUSH1 0x1 PUSH1 0xA0 SHL SUB DUP3 DUP2 AND SWAP2 AND EQ ISZERO PUSH2 0x506 JUMPI PUSH1 0x40 MLOAD PUSH3 0x461BCD PUSH1 0xE5 SHL DUP2 MSTORE PUSH1 0x4 ADD PUSH2 0x4A1 SWAP1 PUSH2 0x2C9E JUMP JUMPDEST PUSH1 0x60 PUSH2 0x510 PUSH2 0x204D JUMP JUMPDEST SWAP1 POP PUSH1 0x0 JUMPDEST DUP2 MLOAD DUP2 LT ISZERO PUSH2 0x56B JUMPI DUP2 DUP2 DUP2 MLOAD DUP2 LT PUSH2 0x52A JUMPI INVALID JUMPDEST PUSH1 0x20 MUL PUSH1 0x20 ADD ADD MLOAD PUSH1 0x1 PUSH1 0x1 PUSH1 0xA0 SHL SUB AND DUP4 PUSH1 0x1 PUSH1 0x1 PUSH1 0xA0 SHL SUB AND EQ ISZERO PUSH2 0x563 JUMPI PUSH1 0x40 MLOAD PUSH3 0x461BCD PUSH1 0xE5 SHL DUP2 MSTORE PUSH1 0x4 ADD PUSH2 0x4A1 SWAP1 PUSH2 0x2D65 JUMP JUMPDEST PUSH1 0x1 ADD PUSH2 0x515 JUMP JUMPDEST POP PUSH2 0x604 PUSH2 0x577 PUSH2 0x1FD0 JUMP JUMPDEST PUSH1 0x40 MLOAD PUSH4 0x70A08231 PUSH1 0xE0 SHL DUP2 MSTORE PUSH1 0x1 PUSH1 0x1 PUSH1 0xA0 SHL SUB DUP6 AND SWAP1 PUSH4 0x70A08231 SWAP1 PUSH2 0x5A3 SWAP1 ADDRESS SWAP1 PUSH1 0x4 ADD PUSH2 0x2AA2 JUMP JUMPDEST PUSH1 0x20 PUSH1 0x40 MLOAD DUP1 DUP4 SUB DUP2 DUP7 DUP1 EXTCODESIZE ISZERO DUP1 ISZERO PUSH2 0x5BB JUMPI PUSH1 0x0 DUP1 REVERT JUMPDEST POP GAS STATICCALL ISZERO DUP1 ISZERO PUSH2 0x5CF JUMPI RETURNDATASIZE PUSH1 0x0 DUP1 RETURNDATACOPY RETURNDATASIZE PUSH1 0x0 REVERT JUMPDEST POP POP POP POP PUSH1 0x40 MLOAD RETURNDATASIZE PUSH1 0x1F NOT PUSH1 0x1F DUP3 ADD AND DUP3 ADD DUP1 PUSH1 0x40 MSTORE POP DUP2 ADD SWAP1 PUSH2 0x5F3 SWAP2 SWAP1 PUSH2 0x2A6E JUMP JUMPDEST PUSH1 0x1 PUSH1 0x1 PUSH1 0xA0 SHL SUB DUP6 AND SWAP2 SWAP1 PUSH2 0x2052 JUMP JUMPDEST POP POP JUMP JUMPDEST PUSH1 0x0 DUP1 SLOAD PUSH1 0x40 DUP1 MLOAD PUSH1 0x20 PUSH1 0x2 PUSH1 0x1 DUP6 AND ISZERO PUSH2 0x100 MUL PUSH1 0x0 NOT ADD SWAP1 SWAP5 AND SWAP4 SWAP1 SWAP4 DIV PUSH1 0x1F DUP2 ADD DUP5 SWAP1 DIV DUP5 MUL DUP3 ADD DUP5 ADD SWAP1 SWAP3 MSTORE DUP2 DUP2 MSTORE SWAP3 SWAP2 DUP4 ADD DUP3 DUP3 DUP1 ISZERO PUSH2 0x68E JUMPI DUP1 PUSH1 0x1F LT PUSH2 0x663 JUMPI PUSH2 0x100 DUP1 DUP4 SLOAD DIV MUL DUP4 MSTORE SWAP2 PUSH1 0x20 ADD SWAP2 PUSH2 0x68E JUMP JUMPDEST DUP3 ADD SWAP2 SWAP1 PUSH1 0x0 MSTORE PUSH1 0x20 PUSH1 0x0 KECCAK256 SWAP1 JUMPDEST DUP2 SLOAD DUP2 MSTORE SWAP1 PUSH1 0x1 ADD SWAP1 PUSH1 0x20 ADD DUP1 DUP4 GT PUSH2 0x671 JUMPI DUP3 SWAP1 SUB PUSH1 0x1F AND DUP3 ADD SWAP2 JUMPDEST POP POP POP POP POP DUP2 JUMP JUMPDEST PUSH1 0x60 PUSH1 0x40 MLOAD DUP1 PUSH1 0x60 ADD PUSH1 0x40 MSTORE DUP1 PUSH1 0x21 DUP2 MSTORE PUSH1 0x20 ADD PUSH2 0x2EB7 PUSH1 0x21 SWAP2 CODECOPY SWAP1 POP SWAP1 JUMP JUMPDEST PUSH1 0x3 SLOAD PUSH1 0x1 PUSH1 0x1 PUSH1 0xA0 SHL SUB AND CALLER EQ DUP1 PUSH2 0x6E7 JUMPI POP PUSH2 0x6D2 PUSH2 0x1FD0 JUMP JUMPDEST PUSH1 0x1 PUSH1 0x1 PUSH1 0xA0 SHL SUB AND CALLER PUSH1 0x1 PUSH1 0x1 PUSH1 0xA0 SHL SUB AND EQ JUMPDEST PUSH2 0x703 JUMPI PUSH1 0x40 MLOAD PUSH3 0x461BCD PUSH1 0xE5 SHL DUP2 MSTORE PUSH1 0x4 ADD PUSH2 0x4A1 SWAP1 PUSH2 0x2CF6 JUMP JUMPDEST PUSH1 0xA DUP2 SWAP1 SSTORE PUSH1 0x40 MLOAD PUSH32 0xA68BA126373D04C004C5748C300C9FCA12BD444B3D4332E261F3BD2BAC4A8600 SWAP1 PUSH2 0x738 SWAP1 DUP4 SWAP1 PUSH2 0x2DDF JUMP JUMPDEST PUSH1 0x40 MLOAD DUP1 SWAP2 SUB SWAP1 LOG1 POP JUMP JUMPDEST PUSH1 0x2 PUSH1 0x0 SWAP1 SLOAD SWAP1 PUSH2 0x100 EXP SWAP1 DIV PUSH1 0x1 PUSH1 0x1 PUSH1 0xA0 SHL SUB AND PUSH1 0x1 PUSH1 0x1 PUSH1 0xA0 SHL SUB AND PUSH4 0x88A8D602 PUSH1 0x40 MLOAD DUP2 PUSH4 0xFFFFFFFF AND PUSH1 0xE0 SHL DUP2 MSTORE PUSH1 0x4 ADD PUSH1 0x20 PUSH1 0x40 MLOAD DUP1 DUP4 SUB DUP2 DUP7 DUP1 EXTCODESIZE ISZERO DUP1 ISZERO PUSH2 0x791 JUMPI PUSH1 0x0 DUP1 REVERT JUMPDEST POP GAS STATICCALL ISZERO DUP1 ISZERO PUSH2 0x7A5 JUMPI RETURNDATASIZE PUSH1 0x0 DUP1 RETURNDATACOPY RETURNDATASIZE PUSH1 0x0 REVERT JUMPDEST POP POP POP POP PUSH1 0x40 MLOAD RETURNDATASIZE PUSH1 0x1F NOT PUSH1 0x1F DUP3 ADD AND DUP3 ADD DUP1 PUSH1 0x40 MSTORE POP DUP2 ADD SWAP1 PUSH2 0x7C9 SWAP2 SWAP1 PUSH2 0x2917 JUMP JUMPDEST PUSH1 0x1 PUSH1 0x1 PUSH1 0xA0 SHL SUB AND CALLER PUSH1 0x1 PUSH1 0x1 PUSH1 0xA0 SHL SUB AND EQ DUP1 PUSH2 0x800 JUMPI POP PUSH2 0x7EB PUSH2 0x1FD0 JUMP JUMPDEST PUSH1 0x1 PUSH1 0x1 PUSH1 0xA0 SHL SUB AND CALLER PUSH1 0x1 PUSH1 0x1 PUSH1 0xA0 SHL SUB AND EQ JUMPDEST PUSH2 0x81C JUMPI PUSH1 0x40 MLOAD PUSH3 0x461BCD PUSH1 0xE5 SHL DUP2 MSTORE PUSH1 0x4 ADD PUSH2 0x4A1 SWAP1 PUSH2 0x2CF6 JUMP JUMPDEST PUSH1 0x1 DUP1 SLOAD PUSH1 0x1 PUSH1 0x1 PUSH1 0xA0 SHL SUB SWAP1 SWAP3 AND PUSH2 0x100 MUL PUSH2 0x100 PUSH1 0x1 PUSH1 0xA8 SHL SUB NOT SWAP1 SWAP3 AND SWAP2 SWAP1 SWAP2 OR SWAP1 SSTORE JUMP JUMPDEST PUSH1 0xA SLOAD DUP2 JUMP JUMPDEST PUSH1 0x6 SLOAD PUSH1 0x1 PUSH1 0x1 PUSH1 0xA0 SHL SUB AND DUP2 JUMP JUMPDEST PUSH1 0x3 SLOAD PUSH1 0x1 PUSH1 0x1 PUSH1 0xA0 SHL SUB AND DUP2 JUMP JUMPDEST PUSH1 0x2 SLOAD PUSH1 0x40 MLOAD PUSH4 0x39EBF823 PUSH1 0xE0 SHL DUP2 MSTORE PUSH1 0x0 SWAP2 DUP3 SWAP2 PUSH1 0x1 PUSH1 0x1 PUSH1 0xA0 SHL SUB SWAP1 SWAP2 AND SWAP1 PUSH4 0x39EBF823 SWAP1 PUSH2 0x89D SWAP1 ADDRESS SWAP1 PUSH1 0x4 ADD PUSH2 0x2AA2 JUMP JUMPDEST PUSH2 0x120 PUSH1 0x40 MLOAD DUP1 DUP4 SUB DUP2 DUP7 DUP1 EXTCODESIZE ISZERO DUP1 ISZERO PUSH2 0x8B6 JUMPI PUSH1 0x0 DUP1 REVERT JUMPDEST POP GAS STATICCALL ISZERO DUP1 ISZERO PUSH2 0x8CA JUMPI RETURNDATASIZE PUSH1 0x0 DUP1 RETURNDATACOPY RETURNDATASIZE PUSH1 0x0 REVERT JUMPDEST POP POP POP POP PUSH1 0x40 MLOAD RETURNDATASIZE PUSH1 0x1F NOT PUSH1 0x1F DUP3 ADD AND DUP3 ADD DUP1 PUSH1 0x40 MSTORE POP DUP2 ADD SWAP1 PUSH2 0x8EE SWAP2 SWAP1 PUSH2 0x29D8 JUMP JUMPDEST PUSH1 0x40 ADD MLOAD GT DUP1 PUSH2 0x905 JUMPI POP PUSH1 0x0 PUSH2 0x903 PUSH2 0x1B6F JUMP JUMPDEST GT JUMPDEST SWAP1 POP SWAP1 JUMP JUMPDEST PUSH1 0x40 DUP1 MLOAD DUP1 DUP3 ADD SWAP1 SWAP2 MSTORE PUSH1 0x5 DUP2 MSTORE PUSH5 0x302E342E33 PUSH1 0xD8 SHL PUSH1 0x20 DUP3 ADD MSTORE SWAP1 JUMP JUMPDEST PUSH1 0x0 PUSH2 0x905 PUSH8 0xDE0B6B3A7640000 PUSH2 0xA4A PUSH1 0xB PUSH1 0x1 SWAP1 SLOAD SWAP1 PUSH2 0x100 EXP SWAP1 DIV PUSH1 0x1 PUSH1 0x1 PUSH1 0xA0 SHL SUB AND PUSH1 0x1 PUSH1 0x1 PUSH1 0xA0 SHL SUB AND PUSH4 0x99530B06 PUSH1 0x40 MLOAD DUP2 PUSH4 0xFFFFFFFF AND PUSH1 0xE0 SHL DUP2 MSTORE PUSH1 0x4 ADD PUSH1 0x20 PUSH1 0x40 MLOAD DUP1 DUP4 SUB DUP2 DUP7 DUP1 EXTCODESIZE ISZERO DUP1 ISZERO PUSH2 0x988 JUMPI PUSH1 0x0 DUP1 REVERT JUMPDEST POP GAS STATICCALL ISZERO DUP1 ISZERO PUSH2 0x99C JUMPI RETURNDATASIZE PUSH1 0x0 DUP1 RETURNDATACOPY RETURNDATASIZE PUSH1 0x0 REVERT JUMPDEST POP POP POP POP PUSH1 0x40 MLOAD RETURNDATASIZE PUSH1 0x1F NOT PUSH1 0x1F DUP3 ADD AND DUP3 ADD DUP1 PUSH1 0x40 MSTORE POP DUP2 ADD SWAP1 PUSH2 0x9C0 SWAP2 SWAP1 PUSH2 0x2A6E JUMP JUMPDEST PUSH1 0xB SLOAD PUSH1 0x40 MLOAD PUSH4 0x70A08231 PUSH1 0xE0 SHL DUP2 MSTORE PUSH2 0x100 SWAP1 SWAP2 DIV PUSH1 0x1 PUSH1 0x1 PUSH1 0xA0 SHL SUB AND SWAP1 PUSH4 0x70A08231 SWAP1 PUSH2 0x9F4 SWAP1 ADDRESS SWAP1 PUSH1 0x4 ADD PUSH2 0x2AA2 JUMP JUMPDEST PUSH1 0x20 PUSH1 0x40 MLOAD DUP1 DUP4 SUB DUP2 DUP7 DUP1 EXTCODESIZE ISZERO DUP1 ISZERO PUSH2 0xA0C JUMPI PUSH1 0x0 DUP1 REVERT JUMPDEST POP GAS STATICCALL ISZERO DUP1 ISZERO PUSH2 0xA20 JUMPI RETURNDATASIZE PUSH1 0x0 DUP1 RETURNDATACOPY RETURNDATASIZE PUSH1 0x0 REVERT JUMPDEST POP POP POP POP PUSH1 0x40 MLOAD RETURNDATASIZE PUSH1 0x1F NOT PUSH1 0x1F DUP3 ADD AND DUP3 ADD DUP1 PUSH1 0x40 MSTORE POP DUP2 ADD SWAP1 PUSH2 0xA44 SWAP2 SWAP1 PUSH2 0x2A6E JUMP JUMPDEST SWAP1 PUSH2 0x2071 JUMP JUMPDEST SWAP1 PUSH2 0x20B4 JUMP JUMPDEST PUSH1 0x8 SLOAD DUP2 JUMP JUMPDEST PUSH1 0x2 SLOAD PUSH1 0x0 SWAP1 PUSH1 0x1 PUSH1 0x1 PUSH1 0xA0 SHL SUB AND CALLER EQ PUSH2 0xA83 JUMPI PUSH1 0x40 MLOAD PUSH3 0x461BCD PUSH1 0xE5 SHL DUP2 MSTORE PUSH1 0x4 ADD PUSH2 0x4A1 SWAP1 PUSH2 0x2C7E JUMP JUMPDEST PUSH1 0x0 PUSH2 0xA8E DUP4 PUSH2 0x20F6 JUMP JUMPDEST PUSH1 0x6 SLOAD SWAP1 SWAP4 POP SWAP1 SWAP2 POP PUSH2 0xAAB SWAP1 PUSH1 0x1 PUSH1 0x1 PUSH1 0xA0 SHL SUB AND CALLER DUP4 PUSH2 0x2052 JUMP JUMPDEST POP SWAP2 SWAP1 POP JUMP JUMPDEST PUSH1 0xB SLOAD PUSH2 0x100 SWAP1 DIV PUSH1 0x1 PUSH1 0x1 PUSH1 0xA0 SHL SUB AND DUP2 JUMP JUMPDEST PUSH1 0x3 SLOAD PUSH1 0x1 PUSH1 0x1 PUSH1 0xA0 SHL SUB AND CALLER EQ DUP1 PUSH2 0xAF6 JUMPI POP PUSH2 0xAE1 PUSH2 0x1FD0 JUMP JUMPDEST PUSH1 0x1 PUSH1 0x1 PUSH1 0xA0 SHL SUB AND CALLER PUSH1 0x1 PUSH1 0x1 PUSH1 0xA0 SHL SUB AND EQ JUMPDEST PUSH2 0xB12 JUMPI PUSH1 0x40 MLOAD PUSH3 0x461BCD PUSH1 0xE5 SHL DUP2 MSTORE PUSH1 0x4 ADD PUSH2 0x4A1 SWAP1 PUSH2 0x2CF6 JUMP JUMPDEST PUSH1 0x7 DUP2 SWAP1 SSTORE PUSH1 0x40 MLOAD PUSH32 0xBB2C369A0355A34B02AB5FCE0643150C87E1C8DFE7C918D465591879F57948B1 SWAP1 PUSH2 0x738 SWAP1 DUP4 SWAP1 PUSH2 0x2DDF JUMP JUMPDEST PUSH1 0x5 SLOAD PUSH1 0x1 PUSH1 0x1 PUSH1 0xA0 SHL SUB AND CALLER EQ DUP1 PUSH2 0xB6A JUMPI POP PUSH1 0x3 SLOAD PUSH1 0x1 PUSH1 0x1 PUSH1 0xA0 SHL SUB AND CALLER EQ JUMPDEST DUP1 PUSH2 0xB8D JUMPI POP PUSH2 0xB78 PUSH2 0x1FD0 JUMP JUMPDEST PUSH1 0x1 PUSH1 0x1 PUSH1 0xA0 SHL SUB AND CALLER PUSH1 0x1 PUSH1 0x1 PUSH1 0xA0 SHL SUB AND EQ JUMPDEST DUP1 PUSH2 0xC2E JUMPI POP PUSH1 0x2 PUSH1 0x0 SWAP1 SLOAD SWAP1 PUSH2 0x100 EXP SWAP1 DIV PUSH1 0x1 PUSH1 0x1 PUSH1 0xA0 SHL SUB AND PUSH1 0x1 PUSH1 0x1 PUSH1 0xA0 SHL SUB AND PUSH4 0x452A9320 PUSH1 0x40 MLOAD DUP2 PUSH4 0xFFFFFFFF AND PUSH1 0xE0 SHL DUP2 MSTORE PUSH1 0x4 ADD PUSH1 0x20 PUSH1 0x40 MLOAD DUP1 DUP4 SUB DUP2 DUP7 DUP1 EXTCODESIZE ISZERO DUP1 ISZERO PUSH2 0xBE1 JUMPI PUSH1 0x0 DUP1 REVERT JUMPDEST POP GAS STATICCALL ISZERO DUP1 ISZERO PUSH2 0xBF5 JUMPI RETURNDATASIZE PUSH1 0x0 DUP1 RETURNDATACOPY RETURNDATASIZE PUSH1 0x0 REVERT JUMPDEST POP POP POP POP PUSH1 0x40 MLOAD RETURNDATASIZE PUSH1 0x1F NOT PUSH1 0x1F DUP3 ADD AND DUP3 ADD DUP1 PUSH1 0x40 MSTORE POP DUP2 ADD SWAP1 PUSH2 0xC19 SWAP2 SWAP1 PUSH2 0x2917 JUMP JUMPDEST PUSH1 0x1 PUSH1 0x1 PUSH1 0xA0 SHL SUB AND CALLER PUSH1 0x1 PUSH1 0x1 PUSH1 0xA0 SHL SUB AND EQ JUMPDEST DUP1 PUSH2 0xCCF JUMPI POP PUSH1 0x2 PUSH1 0x0 SWAP1 SLOAD SWAP1 PUSH2 0x100 EXP SWAP1 DIV PUSH1 0x1 PUSH1 0x1 PUSH1 0xA0 SHL SUB AND PUSH1 0x1 PUSH1 0x1 PUSH1 0xA0 SHL SUB AND PUSH4 0x88A8D602 PUSH1 0x40 MLOAD DUP2 PUSH4 0xFFFFFFFF AND PUSH1 0xE0 SHL DUP2 MSTORE PUSH1 0x4 ADD PUSH1 0x20 PUSH1 0x40 MLOAD DUP1 DUP4 SUB DUP2 DUP7 DUP1 EXTCODESIZE ISZERO DUP1 ISZERO PUSH2 0xC82 JUMPI PUSH1 0x0 DUP1 REVERT JUMPDEST POP GAS STATICCALL ISZERO DUP1 ISZERO PUSH2 0xC96 JUMPI RETURNDATASIZE PUSH1 0x0 DUP1 RETURNDATACOPY RETURNDATASIZE PUSH1 0x0 REVERT JUMPDEST POP POP POP POP PUSH1 0x40 MLOAD RETURNDATASIZE PUSH1 0x1F NOT PUSH1 0x1F DUP3 ADD AND DUP3 ADD DUP1 PUSH1 0x40 MSTORE POP DUP2 ADD SWAP1 PUSH2 0xCBA SWAP2 SWAP1 PUSH2 0x2917 JUMP JUMPDEST PUSH1 0x1 PUSH1 0x1 PUSH1 0xA0 SHL SUB AND CALLER PUSH1 0x1 PUSH1 0x1 PUSH1 0xA0 SHL SUB AND EQ JUMPDEST PUSH2 0xCEB JUMPI PUSH1 0x40 MLOAD PUSH3 0x461BCD PUSH1 0xE5 SHL DUP2 MSTORE PUSH1 0x4 ADD PUSH2 0x4A1 SWAP1 PUSH2 0x2CF6 JUMP JUMPDEST PUSH1 0x2 SLOAD PUSH1 0x40 DUP1 MLOAD PUSH4 0xBF3759B5 PUSH1 0xE0 SHL DUP2 MSTORE SWAP1 MLOAD PUSH2 0xD6E SWAP3 PUSH1 0x1 PUSH1 0x1 PUSH1 0xA0 SHL SUB AND SWAP2 PUSH4 0xBF3759B5 SWAP2 PUSH1 0x4 DUP1 DUP4 ADD SWAP3 PUSH1 0x20 SWAP3 SWAP2 SWAP1 DUP3 SWAP1 SUB ADD DUP2 DUP7 DUP1 EXTCODESIZE ISZERO DUP1 ISZERO PUSH2 0xD31 JUMPI PUSH1 0x0 DUP1 REVERT JUMPDEST POP GAS STATICCALL ISZERO DUP1 ISZERO PUSH2 0xD45 JUMPI RETURNDATASIZE PUSH1 0x0 DUP1 RETURNDATACOPY RETURNDATASIZE PUSH1 0x0 REVERT JUMPDEST POP POP POP POP PUSH1 0x40 MLOAD RETURNDATASIZE PUSH1 0x1F NOT PUSH1 0x1F DUP3 ADD AND DUP3 ADD DUP1 PUSH1 0x40 MSTORE POP DUP2 ADD SWAP1 PUSH2 0xD69 SWAP2 SWAP1 PUSH2 0x2A6E JUMP JUMPDEST PUSH2 0x22D6 JUMP JUMPDEST JUMP JUMPDEST PUSH1 0x5 SLOAD PUSH1 0x1 PUSH1 0x1 PUSH1 0xA0 SHL SUB AND CALLER EQ DUP1 PUSH2 0xD93 JUMPI POP PUSH1 0x3 SLOAD PUSH1 0x1 PUSH1 0x1 PUSH1 0xA0 SHL SUB AND CALLER EQ JUMPDEST DUP1 PUSH2 0xDB6 JUMPI POP PUSH2 0xDA1 PUSH2 0x1FD0 JUMP JUMPDEST PUSH1 0x1 PUSH1 0x1 PUSH1 0xA0 SHL SUB AND CALLER PUSH1 0x1 PUSH1 0x1 PUSH1 0xA0 SHL SUB AND EQ JUMPDEST DUP1 PUSH2 0xE57 JUMPI POP PUSH1 0x2 PUSH1 0x0 SWAP1 SLOAD SWAP1 PUSH2 0x100 EXP SWAP1 DIV PUSH1 0x1 PUSH1 0x1 PUSH1 0xA0 SHL SUB AND PUSH1 0x1 PUSH1 0x1 PUSH1 0xA0 SHL SUB AND PUSH4 0x452A9320 PUSH1 0x40 MLOAD DUP2 PUSH4 0xFFFFFFFF AND PUSH1 0xE0 SHL DUP2 MSTORE PUSH1 0x4 ADD PUSH1 0x20 PUSH1 0x40 MLOAD DUP1 DUP4 SUB DUP2 DUP7 DUP1 EXTCODESIZE ISZERO DUP1 ISZERO PUSH2 0xE0A JUMPI PUSH1 0x0 DUP1 REVERT JUMPDEST POP GAS STATICCALL ISZERO DUP1 ISZERO PUSH2 0xE1E JUMPI RETURNDATASIZE PUSH1 0x0 DUP1 RETURNDATACOPY RETURNDATASIZE PUSH1 0x0 REVERT JUMPDEST POP POP POP POP PUSH1 0x40 MLOAD RETURNDATASIZE PUSH1 0x1F NOT PUSH1 0x1F DUP3 ADD AND DUP3 ADD DUP1 PUSH1 0x40 MSTORE POP DUP2 ADD SWAP1 PUSH2 0xE42 SWAP2 SWAP1 PUSH2 0x2917 JUMP JUMPDEST PUSH1 0x1 PUSH1 0x1 PUSH1 0xA0 SHL SUB AND CALLER PUSH1 0x1 PUSH1 0x1 PUSH1 0xA0 SHL SUB AND EQ JUMPDEST DUP1 PUSH2 0xEF8 JUMPI POP PUSH1 0x2 PUSH1 0x0 SWAP1 SLOAD SWAP1 PUSH2 0x100 EXP SWAP1 DIV PUSH1 0x1 PUSH1 0x1 PUSH1 0xA0 SHL SUB AND PUSH1 0x1 PUSH1 0x1 PUSH1 0xA0 SHL SUB AND PUSH4 0x88A8D602 PUSH1 0x40 MLOAD DUP2 PUSH4 0xFFFFFFFF AND PUSH1 0xE0 SHL DUP2 MSTORE PUSH1 0x4 ADD PUSH1 0x20 PUSH1 0x40 MLOAD DUP1 DUP4 SUB DUP2 DUP7 DUP1 EXTCODESIZE ISZERO DUP1 ISZERO PUSH2 0xEAB JUMPI PUSH1 0x0 DUP1 REVERT JUMPDEST POP GAS STATICCALL ISZERO DUP1 ISZERO PUSH2 0xEBF JUMPI RETURNDATASIZE PUSH1 0x0 DUP1 RETURNDATACOPY RETURNDATASIZE PUSH1 0x0 REVERT JUMPDEST POP POP POP POP PUSH1 0x40 MLOAD RETURNDATASIZE PUSH1 0x1F NOT PUSH1 0x1F DUP3 ADD AND DUP3 ADD DUP1 PUSH1 0x40 MSTORE POP DUP2 ADD SWAP1 PUSH2 0xEE3 SWAP2 SWAP1 PUSH2 0x2917 JUMP JUMPDEST PUSH1 0x1 PUSH1 0x1 PUSH1 0xA0 SHL SUB AND CALLER PUSH1 0x1 PUSH1 0x1 PUSH1 0xA0 SHL SUB AND EQ JUMPDEST PUSH2 0xF14 JUMPI PUSH1 0x40 MLOAD PUSH3 0x461BCD PUSH1 0xE5 SHL DUP2 MSTORE PUSH1 0x4 ADD PUSH2 0x4A1 SWAP1 PUSH2 0x2CF6 JUMP JUMPDEST PUSH1 0x0 DUP1 PUSH1 0x0 PUSH1 0x2 PUSH1 0x0 SWAP1 SLOAD SWAP1 PUSH2 0x100 EXP SWAP1 DIV PUSH1 0x1 PUSH1 0x1 PUSH1 0xA0 SHL SUB AND PUSH1 0x1 PUSH1 0x1 PUSH1 0xA0 SHL SUB AND PUSH4 0xBF3759B5 PUSH1 0x40 MLOAD DUP2 PUSH4 0xFFFFFFFF AND PUSH1 0xE0 SHL DUP2 MSTORE PUSH1 0x4 ADD PUSH1 0x20 PUSH1 0x40 MLOAD DUP1 DUP4 SUB DUP2 DUP7 DUP1 EXTCODESIZE ISZERO DUP1 ISZERO PUSH2 0xF67 JUMPI PUSH1 0x0 DUP1 REVERT JUMPDEST POP GAS STATICCALL ISZERO DUP1 ISZERO PUSH2 0xF7B JUMPI RETURNDATASIZE PUSH1 0x0 DUP1 RETURNDATACOPY RETURNDATASIZE PUSH1 0x0 REVERT JUMPDEST POP POP POP POP PUSH1 0x40 MLOAD RETURNDATASIZE PUSH1 0x1F NOT PUSH1 0x1F DUP3 ADD AND DUP3 ADD DUP1 PUSH1 0x40 MSTORE POP DUP2 ADD SWAP1 PUSH2 0xF9F SWAP2 SWAP1 PUSH2 0x2A6E JUMP JUMPDEST PUSH1 0xB SLOAD SWAP1 SWAP2 POP PUSH1 0x0 SWAP1 PUSH1 0xFF AND ISZERO PUSH2 0xFFC JUMPI PUSH1 0x0 PUSH2 0xFBA PUSH2 0x2471 JUMP JUMPDEST SWAP1 POP DUP3 DUP2 LT ISZERO PUSH2 0xFD5 JUMPI PUSH2 0xFCE DUP4 DUP3 PUSH2 0x257C JUMP JUMPDEST SWAP4 POP PUSH2 0xFEA JUMP JUMPDEST DUP3 DUP2 GT ISZERO PUSH2 0xFEA JUMPI PUSH2 0xFE7 DUP2 DUP5 PUSH2 0x257C JUMP JUMPDEST SWAP5 POP JUMPDEST PUSH2 0xFF4 DUP4 DUP6 PUSH2 0x257C JUMP JUMPDEST SWAP2 POP POP PUSH2 0x100D JUMP JUMPDEST PUSH2 0x1005 DUP3 PUSH2 0x25BE JUMP JUMPDEST SWAP2 SWAP6 POP SWAP4 POP SWAP1 POP JUMPDEST PUSH1 0x2 SLOAD PUSH1 0x40 MLOAD PUSH4 0x39EBF823 PUSH1 0xE0 SHL DUP2 MSTORE PUSH1 0x0 SWAP2 PUSH1 0x1 PUSH1 0x1 PUSH1 0xA0 SHL SUB AND SWAP1 PUSH4 0x39EBF823 SWAP1 PUSH2 0x103E SWAP1 ADDRESS SWAP1 PUSH1 0x4 ADD PUSH2 0x2AA2 JUMP JUMPDEST PUSH2 0x120 PUSH1 0x40 MLOAD DUP1 DUP4 SUB DUP2 DUP7 DUP1 EXTCODESIZE ISZERO DUP1 ISZERO PUSH2 0x1057 JUMPI PUSH1 0x0 DUP1 REVERT JUMPDEST POP GAS STATICCALL ISZERO DUP1 ISZERO PUSH2 0x106B JUMPI RETURNDATASIZE PUSH1 0x0 DUP1 RETURNDATACOPY RETURNDATASIZE PUSH1 0x0 REVERT JUMPDEST POP POP POP POP PUSH1 0x40 MLOAD RETURNDATASIZE PUSH1 0x1F NOT PUSH1 0x1F DUP3 ADD AND DUP3 ADD DUP1 PUSH1 0x40 MSTORE POP DUP2 ADD SWAP1 PUSH2 0x108F SWAP2 SWAP1 PUSH2 0x29D8 JUMP JUMPDEST PUSH1 0xC0 ADD MLOAD PUSH1 0x2 SLOAD PUSH1 0x40 MLOAD PUSH4 0x28766EBF PUSH1 0xE2 SHL DUP2 MSTORE SWAP2 SWAP3 POP PUSH1 0x1 PUSH1 0x1 PUSH1 0xA0 SHL SUB AND SWAP1 PUSH4 0xA1D9BAFC SWAP1 PUSH2 0x10C8 SWAP1 DUP9 SWAP1 DUP9 SWAP1 DUP8 SWAP1 PUSH1 0x4 ADD PUSH2 0x2DE8 JUMP JUMPDEST PUSH1 0x20 PUSH1 0x40 MLOAD DUP1 DUP4 SUB DUP2 PUSH1 0x0 DUP8 DUP1 EXTCODESIZE ISZERO DUP1 ISZERO PUSH2 0x10E2 JUMPI PUSH1 0x0 DUP1 REVERT JUMPDEST POP GAS CALL ISZERO DUP1 ISZERO PUSH2 0x10F6 JUMPI RETURNDATASIZE PUSH1 0x0 DUP1 RETURNDATACOPY RETURNDATASIZE PUSH1 0x0 REVERT JUMPDEST POP POP POP POP PUSH1 0x40 MLOAD RETURNDATASIZE PUSH1 0x1F NOT PUSH1 0x1F DUP3 ADD AND DUP3 ADD DUP1 PUSH1 0x40 MSTORE POP DUP2 ADD SWAP1 PUSH2 0x111A SWAP2 SWAP1 PUSH2 0x2A6E JUMP JUMPDEST SWAP3 POP PUSH2 0x1125 DUP4 PUSH2 0x22D6 JUMP JUMPDEST PUSH1 0x1 SLOAD PUSH1 0xFF AND DUP1 ISZERO PUSH2 0x1146 JUMPI POP PUSH1 0x1 SLOAD PUSH2 0x100 SWAP1 DIV PUSH1 0x1 PUSH1 0x1 PUSH1 0xA0 SHL SUB AND ISZERO ISZERO JUMPDEST ISZERO PUSH2 0x11F8 JUMPI PUSH1 0x1 SLOAD PUSH1 0x40 MLOAD PUSH4 0xC70FA00B PUSH1 0xE0 SHL DUP2 MSTORE PUSH2 0x100 SWAP1 SWAP2 DIV PUSH1 0x1 PUSH1 0x1 PUSH1 0xA0 SHL SUB AND SWAP1 PUSH4 0xC70FA00B SWAP1 PUSH2 0x1187 SWAP1 DUP9 SWAP1 DUP9 SWAP1 DUP8 SWAP1 DUP10 SWAP1 DUP9 SWAP1 PUSH1 0x4 ADD PUSH2 0x2E19 JUMP JUMPDEST PUSH1 0x20 PUSH1 0x40 MLOAD DUP1 DUP4 SUB DUP2 DUP7 DUP1 EXTCODESIZE ISZERO DUP1 ISZERO PUSH2 0x119F JUMPI PUSH1 0x0 DUP1 REVERT JUMPDEST POP GAS STATICCALL ISZERO DUP1 ISZERO PUSH2 0x11B3 JUMPI RETURNDATASIZE PUSH1 0x0 DUP1 RETURNDATACOPY RETURNDATASIZE PUSH1 0x0 REVERT JUMPDEST POP POP POP POP PUSH1 0x40 MLOAD RETURNDATASIZE PUSH1 0x1F NOT PUSH1 0x1F DUP3 ADD AND DUP3 ADD DUP1 PUSH1 0x40 MSTORE POP DUP2 ADD SWAP1 PUSH2 0x11D7 SWAP2 SWAP1 PUSH2 0x294F JUMP JUMPDEST PUSH2 0x11F3 JUMPI PUSH1 0x40 MLOAD PUSH3 0x461BCD PUSH1 0xE5 SHL DUP2 MSTORE PUSH1 0x4 ADD PUSH2 0x4A1 SWAP1 PUSH2 0x2BD1 JUMP JUMPDEST PUSH2 0x1205 JUMP JUMPDEST PUSH1 0x1 DUP1 SLOAD PUSH1 0xFF NOT AND DUP2 OR SWAP1 SSTORE JUMPDEST PUSH32 0x4C0F499FFE6BEFA0CA7C826B0916CF87BEA98DE658013E76938489368D60D509 DUP6 DUP6 DUP5 DUP7 PUSH1 0x40 MLOAD PUSH2 0x123A SWAP5 SWAP4 SWAP3 SWAP2 SWAP1 PUSH2 0x2DFE JUMP JUMPDEST PUSH1 0x40 MLOAD DUP1 SWAP2 SUB SWAP1 LOG1 POP POP POP POP POP JUMP JUMPDEST PUSH1 0xB SLOAD PUSH1 0xFF AND DUP2 JUMP JUMPDEST PUSH1 0x0 JUMPDEST SWAP2 SWAP1 POP JUMP JUMPDEST PUSH1 0x1 SLOAD PUSH1 0xFF AND DUP2 JUMP JUMPDEST PUSH1 0x3 SLOAD PUSH1 0x1 PUSH1 0x1 PUSH1 0xA0 SHL SUB AND CALLER EQ DUP1 PUSH2 0x1294 JUMPI POP PUSH2 0x127F PUSH2 0x1FD0 JUMP JUMPDEST PUSH1 0x1 PUSH1 0x1 PUSH1 0xA0 SHL SUB AND CALLER PUSH1 0x1 PUSH1 0x1 PUSH1 0xA0 SHL SUB AND EQ JUMPDEST PUSH2 0x12B0 JUMPI PUSH1 0x40 MLOAD PUSH3 0x461BCD PUSH1 0xE5 SHL DUP2 MSTORE PUSH1 0x4 ADD PUSH2 0x4A1 SWAP1 PUSH2 0x2CF6 JUMP JUMPDEST PUSH1 0x1 PUSH1 0x1 PUSH1 0xA0 SHL SUB DUP2 AND PUSH2 0x12C3 JUMPI PUSH1 0x0 DUP1 REVERT JUMPDEST PUSH1 0x5 DUP1 SLOAD PUSH1 0x1 PUSH1 0x1 PUSH1 0xA0 SHL SUB NOT AND PUSH1 0x1 PUSH1 0x1 PUSH1 0xA0 SHL SUB DUP4 AND OR SWAP1 SSTORE PUSH1 0x40 MLOAD PUSH32 0x2F202DDB4A2E345F6323ED90F8FC8559D770A7ABBBEEE84DDE8ACA3351FE7154 SWAP1 PUSH2 0x738 SWAP1 DUP4 SWAP1 PUSH2 0x2AA2 JUMP JUMPDEST PUSH1 0x3 SLOAD PUSH1 0x1 PUSH1 0x1 PUSH1 0xA0 SHL SUB AND CALLER EQ DUP1 PUSH2 0x133F JUMPI POP PUSH2 0x132A PUSH2 0x1FD0 JUMP JUMPDEST PUSH1 0x1 PUSH1 0x1 PUSH1 0xA0 SHL SUB AND CALLER PUSH1 0x1 PUSH1 0x1 PUSH1 0xA0 SHL SUB AND EQ JUMPDEST PUSH2 0x135B JUMPI PUSH1 0x40 MLOAD PUSH3 0x461BCD PUSH1 0xE5 SHL DUP2 MSTORE PUSH1 0x4 ADD PUSH2 0x4A1 SWAP1 PUSH2 0x2CF6 JUMP JUMPDEST PUSH2 0x1367 PUSH1 0x0 DUP4 DUP4 PUSH2 0x281C JUMP JUMPDEST POP PUSH32 0x300E67D5A415B6D015A471D9C7B95DD58F3E8290AF965E84E0F845DE2996DDA6 DUP3 DUP3 PUSH1 0x40 MLOAD PUSH2 0x1399 SWAP3 SWAP2 SWAP1 PUSH2 0x2AF4 JUMP JUMPDEST PUSH1 0x40 MLOAD DUP1 SWAP2 SUB SWAP1 LOG1 POP POP JUMP JUMPDEST SWAP1 JUMP JUMPDEST PUSH1 0x9 SLOAD DUP2 JUMP JUMPDEST PUSH1 0x0 SWAP1 JUMP JUMPDEST PUSH1 0x3 SLOAD PUSH1 0x1 PUSH1 0x1 PUSH1 0xA0 SHL SUB AND CALLER EQ DUP1 PUSH2 0x13E4 JUMPI POP PUSH2 0x13CF PUSH2 0x1FD0 JUMP JUMPDEST PUSH1 0x1 PUSH1 0x1 PUSH1 0xA0 SHL SUB AND CALLER PUSH1 0x1 PUSH1 0x1 PUSH1 0xA0 SHL SUB AND EQ JUMPDEST PUSH2 0x1400 JUMPI PUSH1 0x40 MLOAD PUSH3 0x461BCD PUSH1 0xE5 SHL DUP2 MSTORE PUSH1 0x4 ADD PUSH2 0x4A1 SWAP1 PUSH2 0x2CF6 JUMP JUMPDEST PUSH1 0x9 DUP2 SWAP1 SSTORE PUSH1 0x40 MLOAD PUSH32 0xD94596337DF4C2F0F44D30A7FC5DB1C7BB60D9ACA4185ED77C6FD96EB45EC298 SWAP1 PUSH2 0x738 SWAP1 DUP4 SWAP1 PUSH2 0x2DDF JUMP JUMPDEST PUSH1 0x7 SLOAD DUP2 JUMP JUMPDEST PUSH1 0x4 SLOAD PUSH1 0x1 PUSH1 0x1 PUSH1 0xA0 SHL SUB AND DUP2 JUMP JUMPDEST PUSH1 0x2 PUSH1 0x0 SWAP1 SLOAD SWAP1 PUSH2 0x100 EXP SWAP1 DIV PUSH1 0x1 PUSH1 0x1 PUSH1 0xA0 SHL SUB AND PUSH1 0x1 PUSH1 0x1 PUSH1 0xA0 SHL SUB AND PUSH4 0x88A8D602 PUSH1 0x40 MLOAD DUP2 PUSH4 0xFFFFFFFF AND PUSH1 0xE0 SHL DUP2 MSTORE PUSH1 0x4 ADD PUSH1 0x20 PUSH1 0x40 MLOAD DUP1 DUP4 SUB DUP2 DUP7 DUP1 EXTCODESIZE ISZERO DUP1 ISZERO PUSH2 0x1498 JUMPI PUSH1 0x0 DUP1 REVERT JUMPDEST POP GAS STATICCALL ISZERO DUP1 ISZERO PUSH2 0x14AC JUMPI RETURNDATASIZE PUSH1 0x0 DUP1 RETURNDATACOPY RETURNDATASIZE PUSH1 0x0 REVERT JUMPDEST POP POP POP POP PUSH1 0x40 MLOAD RETURNDATASIZE PUSH1 0x1F NOT PUSH1 0x1F DUP3 ADD AND DUP3 ADD DUP1 PUSH1 0x40 MSTORE POP DUP2 ADD SWAP1 PUSH2 0x14D0 SWAP2 SWAP1 PUSH2 0x2917 JUMP JUMPDEST PUSH1 0x1 PUSH1 0x1 PUSH1 0xA0 SHL SUB AND CALLER PUSH1 0x1 PUSH1 0x1 PUSH1 0xA0 SHL SUB AND EQ DUP1 PUSH2 0x1507 JUMPI POP PUSH2 0x14F2 PUSH2 0x1FD0 JUMP JUMPDEST PUSH1 0x1 PUSH1 0x1 PUSH1 0xA0 SHL SUB AND CALLER PUSH1 0x1 PUSH1 0x1 PUSH1 0xA0 SHL SUB AND EQ JUMPDEST PUSH2 0x1523 JUMPI PUSH1 0x40 MLOAD PUSH3 0x461BCD PUSH1 0xE5 SHL DUP2 MSTORE PUSH1 0x4 ADD PUSH2 0x4A1 SWAP1 PUSH2 0x2CF6 JUMP JUMPDEST PUSH1 0x1 DUP1 SLOAD PUSH1 0xFF NOT AND SWAP2 ISZERO ISZERO SWAP2 SWAP1 SWAP2 OR SWAP1 SSTORE JUMP JUMPDEST PUSH1 0x5 SLOAD PUSH1 0x1 PUSH1 0x1 PUSH1 0xA0 SHL SUB AND DUP2 JUMP JUMPDEST PUSH1 0x1 SLOAD PUSH2 0x100 SWAP1 DIV PUSH1 0x1 PUSH1 0x1 PUSH1 0xA0 SHL SUB AND DUP2 JUMP JUMPDEST PUSH1 0x3 SLOAD PUSH1 0x1 PUSH1 0x1 PUSH1 0xA0 SHL SUB AND CALLER EQ DUP1 PUSH2 0x158A JUMPI POP PUSH2 0x1575 PUSH2 0x1FD0 JUMP JUMPDEST PUSH1 0x1 PUSH1 0x1 PUSH1 0xA0 SHL SUB AND CALLER PUSH1 0x1 PUSH1 0x1 PUSH1 0xA0 SHL SUB AND EQ JUMPDEST PUSH2 0x15A6 JUMPI PUSH1 0x40 MLOAD PUSH3 0x461BCD PUSH1 0xE5 SHL DUP2 MSTORE PUSH1 0x4 ADD PUSH2 0x4A1 SWAP1 PUSH2 0x2CF6 JUMP JUMPDEST PUSH1 0x1 PUSH1 0x1 PUSH1 0xA0 SHL SUB DUP2 AND PUSH2 0x15B9 JUMPI PUSH1 0x0 DUP1 REVERT JUMPDEST PUSH1 0x3 DUP1 SLOAD PUSH1 0x1 PUSH1 0x1 PUSH1 0xA0 SHL SUB NOT AND PUSH1 0x1 PUSH1 0x1 PUSH1 0xA0 SHL SUB DUP4 AND OR SWAP1 SSTORE PUSH1 0x40 MLOAD PUSH32 0x352ECECAE6D7D1E6D26BCF2C549DFD55BE1637E9B22DC0CF3B71DDB36097A6B4 SWAP1 PUSH2 0x738 SWAP1 DUP4 SWAP1 PUSH2 0x2AA2 JUMP JUMPDEST PUSH1 0x2 SLOAD PUSH1 0x1 PUSH1 0x1 PUSH1 0xA0 SHL SUB AND CALLER EQ PUSH2 0x161B JUMPI PUSH1 0x0 DUP1 REVERT JUMPDEST PUSH1 0x2 SLOAD PUSH1 0x40 DUP1 MLOAD PUSH4 0xFBFA77CF PUSH1 0xE0 SHL DUP2 MSTORE SWAP1 MLOAD PUSH1 0x1 PUSH1 0x1 PUSH1 0xA0 SHL SUB SWAP3 DUP4 AND SWAP3 DUP5 AND SWAP2 PUSH4 0xFBFA77CF SWAP2 PUSH1 0x4 DUP1 DUP4 ADD SWAP3 PUSH1 0x20 SWAP3 SWAP2 SWAP1 DUP3 SWAP1 SUB ADD DUP2 DUP7 DUP1 EXTCODESIZE ISZERO DUP1 ISZERO PUSH2 0x1662 JUMPI PUSH1 0x0 DUP1 REVERT JUMPDEST POP GAS STATICCALL ISZERO DUP1 ISZERO PUSH2 0x1676 JUMPI RETURNDATASIZE PUSH1 0x0 DUP1 RETURNDATACOPY RETURNDATASIZE PUSH1 0x0 REVERT JUMPDEST POP POP POP POP PUSH1 0x40 MLOAD RETURNDATASIZE PUSH1 0x1F NOT PUSH1 0x1F DUP3 ADD AND DUP3 ADD DUP1 PUSH1 0x40 MSTORE POP DUP2 ADD SWAP1 PUSH2 0x169A SWAP2 SWAP1 PUSH2 0x2917 JUMP JUMPDEST PUSH1 0x1 PUSH1 0x1 PUSH1 0xA0 SHL SUB AND EQ PUSH2 0x16AD JUMPI PUSH1 0x0 DUP1 REVERT JUMPDEST PUSH2 0x16B6 DUP2 PUSH2 0x174F JUMP JUMPDEST PUSH1 0x6 SLOAD PUSH1 0x40 MLOAD PUSH4 0x70A08231 PUSH1 0xE0 SHL DUP2 MSTORE PUSH2 0x174F SWAP2 DUP4 SWAP2 PUSH1 0x1 PUSH1 0x1 PUSH1 0xA0 SHL SUB SWAP1 SWAP2 AND SWAP1 PUSH4 0x70A08231 SWAP1 PUSH2 0x16EC SWAP1 ADDRESS SWAP1 PUSH1 0x4 ADD PUSH2 0x2AA2 JUMP JUMPDEST PUSH1 0x20 PUSH1 0x40 MLOAD DUP1 DUP4 SUB DUP2 DUP7 DUP1 EXTCODESIZE ISZERO DUP1 ISZERO PUSH2 0x1704 JUMPI PUSH1 0x0 DUP1 REVERT JUMPDEST POP GAS STATICCALL ISZERO DUP1 ISZERO PUSH2 0x1718 JUMPI RETURNDATASIZE PUSH1 0x0 DUP1 RETURNDATACOPY RETURNDATASIZE PUSH1 0x0 REVERT JUMPDEST POP POP POP POP PUSH1 0x40 MLOAD RETURNDATASIZE PUSH1 0x1F NOT PUSH1 0x1F DUP3 ADD AND DUP3 ADD DUP1 PUSH1 0x40 MSTORE POP DUP2 ADD SWAP1 PUSH2 0x173C SWAP2 SWAP1 PUSH2 0x2A6E JUMP JUMPDEST PUSH1 0x6 SLOAD PUSH1 0x1 PUSH1 0x1 PUSH1 0xA0 SHL SUB AND SWAP2 SWAP1 PUSH2 0x2052 JUMP JUMPDEST POP JUMP JUMPDEST PUSH1 0x3 SLOAD PUSH1 0x1 PUSH1 0x1 PUSH1 0xA0 SHL SUB AND CALLER EQ PUSH2 0x177C JUMPI PUSH1 0x40 MLOAD PUSH3 0x461BCD PUSH1 0xE5 SHL DUP2 MSTORE PUSH1 0x4 ADD PUSH2 0x4A1 SWAP1 PUSH2 0x2B56 JUMP JUMPDEST PUSH1 0x1 PUSH1 0x1 PUSH1 0xA0 SHL SUB DUP2 AND PUSH2 0x178F JUMPI PUSH1 0x0 DUP1 REVERT JUMPDEST PUSH1 0x2 SLOAD PUSH1 0x4 DUP1 SLOAD PUSH1 0x40 MLOAD PUSH4 0x95EA7B3 PUSH1 0xE0 SHL DUP2 MSTORE PUSH1 0x1 PUSH1 0x1 PUSH1 0xA0 SHL SUB SWAP4 DUP5 AND SWAP4 PUSH4 0x95EA7B3 SWAP4 PUSH2 0x17C6 SWAP4 SWAP1 SWAP2 AND SWAP2 PUSH1 0x0 SWAP2 ADD PUSH2 0x2AD0 JUMP JUMPDEST PUSH1 0x20 PUSH1 0x40 MLOAD DUP1 DUP4 SUB DUP2 PUSH1 0x0 DUP8 DUP1 EXTCODESIZE ISZERO DUP1 ISZERO PUSH2 0x17E0 JUMPI PUSH1 0x0 DUP1 REVERT JUMPDEST POP GAS CALL ISZERO DUP1 ISZERO PUSH2 0x17F4 JUMPI RETURNDATASIZE PUSH1 0x0 DUP1 RETURNDATACOPY RETURNDATASIZE PUSH1 0x0 REVERT JUMPDEST POP POP POP POP PUSH1 0x40 MLOAD RETURNDATASIZE PUSH1 0x1F NOT PUSH1 0x1F DUP3 ADD AND DUP3 ADD DUP1 PUSH1 0x40 MSTORE POP DUP2 ADD SWAP1 PUSH2 0x1818 SWAP2 SWAP1 PUSH2 0x294F JUMP JUMPDEST POP PUSH1 0x4 DUP1 SLOAD PUSH1 0x1 PUSH1 0x1 PUSH1 0xA0 SHL SUB NOT AND PUSH1 0x1 PUSH1 0x1 PUSH1 0xA0 SHL SUB DUP4 DUP2 AND SWAP2 SWAP1 SWAP2 OR DUP1 DUP4 SSTORE PUSH1 0x2 SLOAD PUSH1 0x40 MLOAD PUSH4 0x95EA7B3 PUSH1 0xE0 SHL DUP2 MSTORE SWAP1 DUP4 AND SWAP4 PUSH4 0x95EA7B3 SWAP4 PUSH2 0x1863 SWAP4 AND SWAP2 PUSH1 0x0 NOT SWAP2 ADD PUSH2 0x2AD0 JUMP JUMPDEST PUSH1 0x20 PUSH1 0x40 MLOAD DUP1 DUP4 SUB DUP2 PUSH1 0x0 DUP8 DUP1 EXTCODESIZE ISZERO DUP1 ISZERO PUSH2 0x187D JUMPI PUSH1 0x0 DUP1 REVERT JUMPDEST POP GAS CALL ISZERO DUP1 ISZERO PUSH2 0x1891 JUMPI RETURNDATASIZE PUSH1 0x0 DUP1 RETURNDATACOPY RETURNDATASIZE PUSH1 0x0 REVERT JUMPDEST POP POP POP POP PUSH1 0x40 MLOAD RETURNDATASIZE PUSH1 0x1F NOT PUSH1 0x1F DUP3 ADD AND DUP3 ADD DUP1 PUSH1 0x40 MSTORE POP DUP2 ADD SWAP1 PUSH2 0x18B5 SWAP2 SWAP1 PUSH2 0x294F JUMP JUMPDEST POP PUSH32 0xAFBB66ABF8F3B719799940473A4052A3717CDD8E40FB6C8A3FAADAB316B1A069 DUP2 PUSH1 0x40 MLOAD PUSH2 0x738 SWAP2 SWAP1 PUSH2 0x2AA2 JUMP JUMPDEST PUSH1 0x0 DUP1 PUSH2 0x18F1 DUP4 PUSH2 0x13A5 JUMP JUMPDEST SWAP1 POP PUSH2 0x18FB PUSH2 0x289A JUMP JUMPDEST PUSH1 0x2 SLOAD PUSH1 0x40 MLOAD PUSH4 0x39EBF823 PUSH1 0xE0 SHL DUP2 MSTORE PUSH1 0x1 PUSH1 0x1 PUSH1 0xA0 SHL SUB SWAP1 SWAP2 AND SWAP1 PUSH4 0x39EBF823 SWAP1 PUSH2 0x192B SWAP1 ADDRESS SWAP1 PUSH1 0x4 ADD PUSH2 0x2AA2 JUMP JUMPDEST PUSH2 0x120 PUSH1 0x40 MLOAD DUP1 DUP4 SUB DUP2 DUP7 DUP1 EXTCODESIZE ISZERO DUP1 ISZERO PUSH2 0x1944 JUMPI PUSH1 0x0 DUP1 REVERT JUMPDEST POP GAS STATICCALL ISZERO DUP1 ISZERO PUSH2 0x1958 JUMPI RETURNDATASIZE PUSH1 0x0 DUP1 RETURNDATACOPY RETURNDATASIZE PUSH1 0x0 REVERT JUMPDEST POP POP POP POP PUSH1 0x40 MLOAD RETURNDATASIZE PUSH1 0x1F NOT PUSH1 0x1F DUP3 ADD AND DUP3 ADD DUP1 PUSH1 0x40 MSTORE POP DUP2 ADD SWAP1 PUSH2 0x197C SWAP2 SWAP1 PUSH2 0x29D8 JUMP JUMPDEST SWAP1 POP DUP1 PUSH1 0x20 ADD MLOAD PUSH1 0x0 EQ ISZERO PUSH2 0x1996 JUMPI PUSH1 0x0 SWAP3 POP POP POP PUSH2 0x1255 JUMP JUMPDEST PUSH1 0x7 SLOAD PUSH1 0xA0 DUP3 ADD MLOAD PUSH2 0x19A9 SWAP1 TIMESTAMP SWAP1 PUSH2 0x257C JUMP JUMPDEST LT ISZERO PUSH2 0x19BA JUMPI PUSH1 0x0 SWAP3 POP POP POP PUSH2 0x1255 JUMP JUMPDEST PUSH1 0x8 SLOAD PUSH1 0xA0 DUP3 ADD MLOAD PUSH2 0x19CD SWAP1 TIMESTAMP SWAP1 PUSH2 0x257C JUMP JUMPDEST LT PUSH2 0x19DD JUMPI PUSH1 0x1 SWAP3 POP POP POP PUSH2 0x1255 JUMP JUMPDEST PUSH1 0x2 SLOAD PUSH1 0x40 DUP1 MLOAD PUSH4 0xBF3759B5 PUSH1 0xE0 SHL DUP2 MSTORE SWAP1 MLOAD PUSH1 0x0 SWAP3 PUSH1 0x1 PUSH1 0x1 PUSH1 0xA0 SHL SUB AND SWAP2 PUSH4 0xBF3759B5 SWAP2 PUSH1 0x4 DUP1 DUP4 ADD SWAP3 PUSH1 0x20 SWAP3 SWAP2 SWAP1 DUP3 SWAP1 SUB ADD DUP2 DUP7 DUP1 EXTCODESIZE ISZERO DUP1 ISZERO PUSH2 0x1A22 JUMPI PUSH1 0x0 DUP1 REVERT JUMPDEST POP GAS STATICCALL ISZERO DUP1 ISZERO PUSH2 0x1A36 JUMPI RETURNDATASIZE PUSH1 0x0 DUP1 RETURNDATACOPY RETURNDATASIZE PUSH1 0x0 REVERT JUMPDEST POP POP POP POP PUSH1 0x40 MLOAD RETURNDATASIZE PUSH1 0x1F NOT PUSH1 0x1F DUP3 ADD AND DUP3 ADD DUP1 PUSH1 0x40 MSTORE POP DUP2 ADD SWAP1 PUSH2 0x1A5A SWAP2 SWAP1 PUSH2 0x2A6E JUMP JUMPDEST SWAP1 POP PUSH1 0xA SLOAD DUP2 GT ISZERO PUSH2 0x1A72 JUMPI PUSH1 0x1 SWAP4 POP POP POP POP PUSH2 0x1255 JUMP JUMPDEST PUSH1 0x0 PUSH2 0x1A7C PUSH2 0x1B6F JUMP JUMPDEST SWAP1 POP DUP3 PUSH1 0xC0 ADD MLOAD PUSH2 0x1A98 PUSH1 0xA SLOAD DUP4 PUSH2 0x25EF SWAP1 SWAP2 SWAP1 PUSH4 0xFFFFFFFF AND JUMP JUMPDEST LT ISZERO PUSH2 0x1AAB JUMPI PUSH1 0x1 SWAP5 POP POP POP POP POP PUSH2 0x1255 JUMP JUMPDEST PUSH1 0x0 DUP4 PUSH1 0xC0 ADD MLOAD DUP3 GT ISZERO PUSH2 0x1ACC JUMPI PUSH1 0xC0 DUP5 ADD MLOAD PUSH2 0x1AC9 SWAP1 DUP4 SWAP1 PUSH2 0x257C JUMP JUMPDEST SWAP1 POP JUMPDEST PUSH1 0x2 SLOAD PUSH1 0x40 DUP1 MLOAD PUSH4 0x112C1F9B PUSH1 0xE0 SHL DUP2 MSTORE SWAP1 MLOAD PUSH1 0x0 SWAP3 PUSH1 0x1 PUSH1 0x1 PUSH1 0xA0 SHL SUB AND SWAP2 PUSH4 0x112C1F9B SWAP2 PUSH1 0x4 DUP1 DUP4 ADD SWAP3 PUSH1 0x20 SWAP3 SWAP2 SWAP1 DUP3 SWAP1 SUB ADD DUP2 DUP7 DUP1 EXTCODESIZE ISZERO DUP1 ISZERO PUSH2 0x1B11 JUMPI PUSH1 0x0 DUP1 REVERT JUMPDEST POP GAS STATICCALL ISZERO DUP1 ISZERO PUSH2 0x1B25 JUMPI RETURNDATASIZE PUSH1 0x0 DUP1 RETURNDATACOPY RETURNDATASIZE PUSH1 0x0 REVERT JUMPDEST POP POP POP POP PUSH1 0x40 MLOAD RETURNDATASIZE PUSH1 0x1F NOT PUSH1 0x1F DUP3 ADD AND DUP3 ADD DUP1 PUSH1 0x40 MSTORE POP DUP2 ADD SWAP1 PUSH2 0x1B49 SWAP2 SWAP1 PUSH2 0x2A6E JUMP JUMPDEST SWAP1 POP PUSH2 0x1B55 DUP2 DUP4 PUSH2 0x25EF JUMP JUMPDEST PUSH1 0x9 SLOAD PUSH2 0x1B62 SWAP1 DUP9 PUSH2 0x2071 JUMP JUMPDEST LT SWAP9 SWAP8 POP POP POP POP POP POP POP POP JUMP JUMPDEST PUSH1 0x0 PUSH2 0x905 PUSH2 0x1B7C PUSH2 0x929 JUMP JUMPDEST PUSH1 0x6 SLOAD PUSH1 0x40 MLOAD PUSH4 0x70A08231 PUSH1 0xE0 SHL DUP2 MSTORE PUSH1 0x1 PUSH1 0x1 PUSH1 0xA0 SHL SUB SWAP1 SWAP2 AND SWAP1 PUSH4 0x70A08231 SWAP1 PUSH2 0x1BAC SWAP1 ADDRESS SWAP1 PUSH1 0x4 ADD PUSH2 0x2AA2 JUMP JUMPDEST PUSH1 0x20 PUSH1 0x40 MLOAD DUP1 DUP4 SUB DUP2 DUP7 DUP1 EXTCODESIZE ISZERO DUP1 ISZERO PUSH2 0x1BC4 JUMPI PUSH1 0x0 DUP1 REVERT JUMPDEST POP GAS STATICCALL ISZERO DUP1 ISZERO PUSH2 0x1BD8 JUMPI RETURNDATASIZE PUSH1 0x0 DUP1 RETURNDATACOPY RETURNDATASIZE PUSH1 0x0 REVERT JUMPDEST POP POP POP POP PUSH1 0x40 MLOAD RETURNDATASIZE PUSH1 0x1F NOT PUSH1 0x1F DUP3 ADD AND DUP3 ADD DUP1 PUSH1 0x40 MSTORE POP DUP2 ADD SWAP1 PUSH2 0x1BFC SWAP2 SWAP1 PUSH2 0x2A6E JUMP JUMPDEST SWAP1 PUSH2 0x25EF JUMP JUMPDEST PUSH1 0x3 SLOAD PUSH1 0x1 PUSH1 0x1 PUSH1 0xA0 SHL SUB AND CALLER EQ DUP1 PUSH2 0x1C33 JUMPI POP PUSH2 0x1C1E PUSH2 0x1FD0 JUMP JUMPDEST PUSH1 0x1 PUSH1 0x1 PUSH1 0xA0 SHL SUB AND CALLER PUSH1 0x1 PUSH1 0x1 PUSH1 0xA0 SHL SUB AND EQ JUMPDEST PUSH2 0x1C4F JUMPI PUSH1 0x40 MLOAD PUSH3 0x461BCD PUSH1 0xE5 SHL DUP2 MSTORE PUSH1 0x4 ADD PUSH2 0x4A1 SWAP1 PUSH2 0x2CF6 JUMP JUMPDEST PUSH1 0x8 DUP2 SWAP1 SSTORE PUSH1 0x40 MLOAD PUSH32 0x5430E11864AD7AA9775B07D12657FE52DF9AA2BA734355BD8EF8747BE2C800C5 SWAP1 PUSH2 0x738 SWAP1 DUP4 SWAP1 PUSH2 0x2DDF JUMP JUMPDEST PUSH1 0x2 SLOAD PUSH1 0x1 PUSH1 0x1 PUSH1 0xA0 SHL SUB AND DUP2 JUMP JUMPDEST PUSH1 0x3 SLOAD PUSH1 0x1 PUSH1 0x1 PUSH1 0xA0 SHL SUB AND CALLER EQ DUP1 PUSH2 0x1CC4 JUMPI POP PUSH2 0x1CAF PUSH2 0x1FD0 JUMP JUMPDEST PUSH1 0x1 PUSH1 0x1 PUSH1 0xA0 SHL SUB AND CALLER PUSH1 0x1 PUSH1 0x1 PUSH1 0xA0 SHL SUB AND EQ JUMPDEST DUP1 PUSH2 0x1D65 JUMPI POP PUSH1 0x2 PUSH1 0x0 SWAP1 SLOAD SWAP1 PUSH2 0x100 EXP SWAP1 DIV PUSH1 0x1 PUSH1 0x1 PUSH1 0xA0 SHL SUB AND PUSH1 0x1 PUSH1 0x1 PUSH1 0xA0 SHL SUB AND PUSH4 0x452A9320 PUSH1 0x40 MLOAD DUP2 PUSH4 0xFFFFFFFF AND PUSH1 0xE0 SHL DUP2 MSTORE PUSH1 0x4 ADD PUSH1 0x20 PUSH1 0x40 MLOAD DUP1 DUP4 SUB DUP2 DUP7 DUP1 EXTCODESIZE ISZERO DUP1 ISZERO PUSH2 0x1D18 JUMPI PUSH1 0x0 DUP1 REVERT JUMPDEST POP GAS STATICCALL ISZERO DUP1 ISZERO PUSH2 0x1D2C JUMPI RETURNDATASIZE PUSH1 0x0 DUP1 RETURNDATACOPY RETURNDATASIZE PUSH1 0x0 REVERT JUMPDEST POP POP POP POP PUSH1 0x40 MLOAD RETURNDATASIZE PUSH1 0x1F NOT PUSH1 0x1F DUP3 ADD AND DUP3 ADD DUP1 PUSH1 0x40 MSTORE POP DUP2 ADD SWAP1 PUSH2 0x1D50 SWAP2 SWAP1 PUSH2 0x2917 JUMP JUMPDEST PUSH1 0x1 PUSH1 0x1 PUSH1 0xA0 SHL SUB AND CALLER PUSH1 0x1 PUSH1 0x1 PUSH1 0xA0 SHL SUB AND EQ JUMPDEST DUP1 PUSH2 0x1E06 JUMPI POP PUSH1 0x2 PUSH1 0x0 SWAP1 SLOAD SWAP1 PUSH2 0x100 EXP SWAP1 DIV PUSH1 0x1 PUSH1 0x1 PUSH1 0xA0 SHL SUB AND PUSH1 0x1 PUSH1 0x1 PUSH1 0xA0 SHL SUB AND PUSH4 0x88A8D602 PUSH1 0x40 MLOAD DUP2 PUSH4 0xFFFFFFFF AND PUSH1 0xE0 SHL DUP2 MSTORE PUSH1 0x4 ADD PUSH1 0x20 PUSH1 0x40 MLOAD DUP1 DUP4 SUB DUP2 DUP7 DUP1 EXTCODESIZE ISZERO DUP1 ISZERO PUSH2 0x1DB9 JUMPI PUSH1 0x0 DUP1 REVERT JUMPDEST POP GAS STATICCALL ISZERO DUP1 ISZERO PUSH2 0x1DCD JUMPI RETURNDATASIZE PUSH1 0x0 DUP1 RETURNDATACOPY RETURNDATASIZE PUSH1 0x0 REVERT JUMPDEST POP POP POP POP PUSH1 0x40 MLOAD RETURNDATASIZE PUSH1 0x1F NOT PUSH1 0x1F DUP3 ADD AND DUP3 ADD DUP1 PUSH1 0x40 MSTORE POP DUP2 ADD SWAP1 PUSH2 0x1DF1 SWAP2 SWAP1 PUSH2 0x2917 JUMP JUMPDEST PUSH1 0x1 PUSH1 0x1 PUSH1 0xA0 SHL SUB AND CALLER PUSH1 0x1 PUSH1 0x1 PUSH1 0xA0 SHL SUB AND EQ JUMPDEST PUSH2 0x1E22 JUMPI PUSH1 0x40 MLOAD PUSH3 0x461BCD PUSH1 0xE5 SHL DUP2 MSTORE PUSH1 0x4 ADD PUSH2 0x4A1 SWAP1 PUSH2 0x2CF6 JUMP JUMPDEST PUSH1 0xB DUP1 SLOAD PUSH1 0xFF NOT AND PUSH1 0x1 OR SWAP1 SSTORE PUSH1 0x2 SLOAD PUSH1 0x40 DUP1 MLOAD PUSH4 0x507257CD PUSH1 0xE1 SHL DUP2 MSTORE SWAP1 MLOAD PUSH1 0x1 PUSH1 0x1 PUSH1 0xA0 SHL SUB SWAP1 SWAP3 AND SWAP2 PUSH4 0xA0E4AF9A SWAP2 PUSH1 0x4 DUP1 DUP3 ADD SWAP3 PUSH1 0x0 SWAP3 SWAP1 SWAP2 SWAP1 DUP3 SWAP1 SUB ADD DUP2 DUP4 DUP8 DUP1 EXTCODESIZE ISZERO DUP1 ISZERO PUSH2 0x1E75 JUMPI PUSH1 0x0 DUP1 REVERT JUMPDEST POP GAS CALL ISZERO DUP1 ISZERO PUSH2 0x1E89 JUMPI RETURNDATASIZE PUSH1 0x0 DUP1 RETURNDATACOPY RETURNDATASIZE PUSH1 0x0 REVERT JUMPDEST POP POP PUSH1 0x40 MLOAD PUSH32 0x97E963041E952738788B9D4871D854D282065B8F90A464928D6528F2E9A4FD0B SWAP3 POP PUSH1 0x0 SWAP2 POP LOG1 JUMP JUMPDEST DUP1 ISZERO DUP1 PUSH2 0x1F40 JUMPI POP PUSH1 0x40 MLOAD PUSH4 0x6EB1769F PUSH1 0xE1 SHL DUP2 MSTORE PUSH1 0x1 PUSH1 0x1 PUSH1 0xA0 SHL SUB DUP5 AND SWAP1 PUSH4 0xDD62ED3E SWAP1 PUSH2 0x1EEE SWAP1 ADDRESS SWAP1 DUP7 SWAP1 PUSH1 0x4 ADD PUSH2 0x2AB6 JUMP JUMPDEST PUSH1 0x20 PUSH1 0x40 MLOAD DUP1 DUP4 SUB DUP2 DUP7 DUP1 EXTCODESIZE ISZERO DUP1 ISZERO PUSH2 0x1F06 JUMPI PUSH1 0x0 DUP1 REVERT JUMPDEST POP GAS STATICCALL ISZERO DUP1 ISZERO PUSH2 0x1F1A JUMPI RETURNDATASIZE PUSH1 0x0 DUP1 RETURNDATACOPY RETURNDATASIZE PUSH1 0x0 REVERT JUMPDEST POP POP POP POP PUSH1 0x40 MLOAD RETURNDATASIZE PUSH1 0x1F NOT PUSH1 0x1F DUP3 ADD AND DUP3 ADD DUP1 PUSH1 0x40 MSTORE POP DUP2 ADD SWAP1 PUSH2 0x1F3E SWAP2 SWAP1 PUSH2 0x2A6E JUMP JUMPDEST ISZERO JUMPDEST PUSH2 0x1F5C JUMPI PUSH1 0x40 MLOAD PUSH3 0x461BCD PUSH1 0xE5 SHL DUP2 MSTORE PUSH1 0x4 ADD PUSH2 0x4A1 SWAP1 PUSH2 0x2D89 JUMP JUMPDEST PUSH2 0x1FB2 DUP4 PUSH4 0x95EA7B3 PUSH1 0xE0 SHL DUP5 DUP5 PUSH1 0x40 MLOAD PUSH1 0x24 ADD PUSH2 0x1F7B SWAP3 SWAP2 SWAP1 PUSH2 0x2AD0 JUMP JUMPDEST PUSH1 0x40 DUP1 MLOAD PUSH1 0x1F NOT DUP2 DUP5 SUB ADD DUP2 MSTORE SWAP2 SWAP1 MSTORE PUSH1 0x20 DUP2 ADD DUP1 MLOAD PUSH1 0x1 PUSH1 0x1 PUSH1 0xE0 SHL SUB AND PUSH1 0x1 PUSH1 0x1 PUSH1 0xE0 SHL SUB NOT SWAP1 SWAP4 AND SWAP3 SWAP1 SWAP3 OR SWAP1 SWAP2 MSTORE PUSH2 0x2614 JUMP JUMPDEST POP POP POP JUMP JUMPDEST PUSH1 0x60 PUSH2 0x1FC6 DUP5 DUP5 PUSH1 0x0 DUP6 PUSH2 0x26A3 JUMP JUMPDEST SWAP1 POP JUMPDEST SWAP4 SWAP3 POP POP POP JUMP JUMPDEST PUSH1 0x2 SLOAD PUSH1 0x40 DUP1 MLOAD PUSH4 0x5AA6E675 PUSH1 0xE0 SHL DUP2 MSTORE SWAP1 MLOAD PUSH1 0x0 SWAP3 PUSH1 0x1 PUSH1 0x1 PUSH1 0xA0 SHL SUB AND SWAP2 PUSH4 0x5AA6E675 SWAP2 PUSH1 0x4 DUP1 DUP4 ADD SWAP3 PUSH1 0x20 SWAP3 SWAP2 SWAP1 DUP3 SWAP1 SUB ADD DUP2 DUP7 DUP1 EXTCODESIZE ISZERO DUP1 ISZERO PUSH2 0x2015 JUMPI PUSH1 0x0 DUP1 REVERT JUMPDEST POP GAS STATICCALL ISZERO DUP1 ISZERO PUSH2 0x2029 JUMPI RETURNDATASIZE PUSH1 0x0 DUP1 RETURNDATACOPY RETURNDATASIZE PUSH1 0x0 REVERT JUMPDEST POP POP POP POP PUSH1 0x40 MLOAD RETURNDATASIZE PUSH1 0x1F NOT PUSH1 0x1F DUP3 ADD AND DUP3 ADD DUP1 PUSH1 0x40 MSTORE POP DUP2 ADD SWAP1 PUSH2 0x905 SWAP2 SWAP1 PUSH2 0x2917 JUMP JUMPDEST PUSH1 0x60 SWAP1 JUMP JUMPDEST PUSH2 0x1FB2 DUP4 PUSH4 0xA9059CBB PUSH1 0xE0 SHL DUP5 DUP5 PUSH1 0x40 MLOAD PUSH1 0x24 ADD PUSH2 0x1F7B SWAP3 SWAP2 SWAP1 PUSH2 0x2AD0 JUMP JUMPDEST PUSH1 0x0 DUP3 PUSH2 0x2080 JUMPI POP PUSH1 0x0 PUSH2 0x20AE JUMP JUMPDEST DUP3 DUP3 MUL DUP3 DUP5 DUP3 DUP2 PUSH2 0x208D JUMPI INVALID JUMPDEST DIV EQ PUSH2 0x20AB JUMPI PUSH1 0x40 MLOAD PUSH3 0x461BCD PUSH1 0xE5 SHL DUP2 MSTORE PUSH1 0x4 ADD PUSH2 0x4A1 SWAP1 PUSH2 0x2C3D JUMP JUMPDEST SWAP1 POP JUMPDEST SWAP3 SWAP2 POP POP JUMP JUMPDEST PUSH1 0x0 PUSH2 0x20AB DUP4 DUP4 PUSH1 0x40 MLOAD DUP1 PUSH1 0x40 ADD PUSH1 0x40 MSTORE DUP1 PUSH1 0x1A DUP2 MSTORE PUSH1 0x20 ADD PUSH32 0x536166654D6174683A206469766973696F6E206279207A65726F000000000000 DUP2 MSTORE POP PUSH2 0x2764 JUMP JUMPDEST PUSH1 0x6 SLOAD PUSH1 0x40 MLOAD PUSH4 0x70A08231 PUSH1 0xE0 SHL DUP2 MSTORE PUSH1 0x0 SWAP2 DUP3 SWAP2 DUP3 SWAP2 PUSH1 0x1 PUSH1 0x1 PUSH1 0xA0 SHL SUB AND SWAP1 PUSH4 0x70A08231 SWAP1 PUSH2 0x212B SWAP1 ADDRESS SWAP1 PUSH1 0x4 ADD PUSH2 0x2AA2 JUMP JUMPDEST PUSH1 0x20 PUSH1 0x40 MLOAD DUP1 DUP4 SUB DUP2 DUP7 DUP1 EXTCODESIZE ISZERO DUP1 ISZERO PUSH2 0x2143 JUMPI PUSH1 0x0 DUP1 REVERT JUMPDEST POP GAS STATICCALL ISZERO DUP1 ISZERO PUSH2 0x2157 JUMPI RETURNDATASIZE PUSH1 0x0 DUP1 RETURNDATACOPY RETURNDATASIZE PUSH1 0x0 REVERT JUMPDEST POP POP POP POP PUSH1 0x40 MLOAD RETURNDATASIZE PUSH1 0x1F NOT PUSH1 0x1F DUP3 ADD AND DUP3 ADD DUP1 PUSH1 0x40 MSTORE POP DUP2 ADD SWAP1 PUSH2 0x217B SWAP2 SWAP1 PUSH2 0x2A6E JUMP JUMPDEST SWAP1 POP DUP1 DUP5 GT ISZERO PUSH2 0x222C JUMPI PUSH1 0x0 PUSH2 0x218F PUSH2 0x929 JUMP JUMPDEST PUSH1 0xB SLOAD SWAP1 SWAP2 POP PUSH2 0x100 SWAP1 DIV PUSH1 0x1 PUSH1 0x1 PUSH1 0xA0 SHL SUB AND PUSH4 0x2E1A7D4D PUSH2 0x21BB DUP4 PUSH2 0x21B6 DUP10 DUP8 PUSH2 0x257C JUMP JUMPDEST PUSH2 0x279B JUMP JUMPDEST PUSH1 0x40 MLOAD DUP3 PUSH4 0xFFFFFFFF AND PUSH1 0xE0 SHL DUP2 MSTORE PUSH1 0x4 ADD PUSH2 0x21D7 SWAP2 SWAP1 PUSH2 0x2DDF JUMP JUMPDEST PUSH1 0x20 PUSH1 0x40 MLOAD DUP1 DUP4 SUB DUP2 PUSH1 0x0 DUP8 DUP1 EXTCODESIZE ISZERO DUP1 ISZERO PUSH2 0x21F1 JUMPI PUSH1 0x0 DUP1 REVERT JUMPDEST POP GAS CALL ISZERO DUP1 ISZERO PUSH2 0x2205 JUMPI RETURNDATASIZE PUSH1 0x0 DUP1 RETURNDATACOPY RETURNDATASIZE PUSH1 0x0 REVERT JUMPDEST POP POP POP POP PUSH1 0x40 MLOAD RETURNDATASIZE PUSH1 0x1F NOT PUSH1 0x1F DUP3 ADD AND DUP3 ADD DUP1 PUSH1 0x40 MSTORE POP DUP2 ADD SWAP1 PUSH2 0x2229 SWAP2 SWAP1 PUSH2 0x2A6E JUMP JUMPDEST POP POP JUMPDEST PUSH1 0x6 SLOAD PUSH1 0x40 MLOAD PUSH4 0x70A08231 PUSH1 0xE0 SHL DUP2 MSTORE PUSH1 0x0 SWAP2 PUSH1 0x1 PUSH1 0x1 PUSH1 0xA0 SHL SUB AND SWAP1 PUSH4 0x70A08231 SWAP1 PUSH2 0x225D SWAP1 ADDRESS SWAP1 PUSH1 0x4 ADD PUSH2 0x2AA2 JUMP JUMPDEST PUSH1 0x20 PUSH1 0x40 MLOAD DUP1 DUP4 SUB DUP2 DUP7 DUP1 EXTCODESIZE ISZERO DUP1 ISZERO PUSH2 0x2275 JUMPI PUSH1 0x0 DUP1 REVERT JUMPDEST POP GAS STATICCALL ISZERO DUP1 ISZERO PUSH2 0x2289 JUMPI RETURNDATASIZE PUSH1 0x0 DUP1 RETURNDATACOPY RETURNDATASIZE PUSH1 0x0 REVERT JUMPDEST POP POP POP POP PUSH1 0x40 MLOAD RETURNDATASIZE PUSH1 0x1F NOT PUSH1 0x1F DUP3 ADD AND DUP3 ADD DUP1 PUSH1 0x40 MSTORE POP DUP2 ADD SWAP1 PUSH2 0x22AD SWAP2 SWAP1 PUSH2 0x2A6E JUMP JUMPDEST SWAP1 POP DUP1 DUP6 GT ISZERO PUSH2 0x22CB JUMPI SWAP3 POP DUP3 PUSH2 0x22C4 DUP6 DUP3 PUSH2 0x257C JUMP JUMPDEST SWAP3 POP PUSH2 0x22CF JUMP JUMPDEST DUP5 SWAP4 POP JUMPDEST POP POP SWAP2 POP SWAP2 JUMP JUMPDEST PUSH1 0x6 SLOAD PUSH1 0x40 MLOAD PUSH4 0x70A08231 PUSH1 0xE0 SHL DUP2 MSTORE DUP3 SWAP2 PUSH1 0x1 PUSH1 0x1 PUSH1 0xA0 SHL SUB AND SWAP1 PUSH4 0x70A08231 SWAP1 PUSH2 0x2306 SWAP1 ADDRESS SWAP1 PUSH1 0x4 ADD PUSH2 0x2AA2 JUMP JUMPDEST PUSH1 0x20 PUSH1 0x40 MLOAD DUP1 DUP4 SUB DUP2 DUP7 DUP1 EXTCODESIZE ISZERO DUP1 ISZERO PUSH2 0x231E JUMPI PUSH1 0x0 DUP1 REVERT JUMPDEST POP GAS STATICCALL ISZERO DUP1 ISZERO PUSH2 0x2332 JUMPI RETURNDATASIZE PUSH1 0x0 DUP1 RETURNDATACOPY RETURNDATASIZE PUSH1 0x0 REVERT JUMPDEST POP POP POP POP PUSH1 0x40 MLOAD RETURNDATASIZE PUSH1 0x1F NOT PUSH1 0x1F DUP3 ADD AND DUP3 ADD DUP1 PUSH1 0x40 MSTORE POP DUP2 ADD SWAP1 PUSH2 0x2356 SWAP2 SWAP1 PUSH2 0x2A6E JUMP JUMPDEST GT ISZERO PUSH2 0x174F JUMPI PUSH1 0x6 SLOAD PUSH1 0x40 MLOAD PUSH4 0x70A08231 PUSH1 0xE0 SHL DUP2 MSTORE PUSH1 0x0 SWAP2 PUSH2 0x23E9 SWAP2 DUP5 SWAP2 PUSH1 0x1 PUSH1 0x1 PUSH1 0xA0 SHL SUB AND SWAP1 PUSH4 0x70A08231 SWAP1 PUSH2 0x2393 SWAP1 ADDRESS SWAP1 PUSH1 0x4 ADD PUSH2 0x2AA2 JUMP JUMPDEST PUSH1 0x20 PUSH1 0x40 MLOAD DUP1 DUP4 SUB DUP2 DUP7 DUP1 EXTCODESIZE ISZERO DUP1 ISZERO PUSH2 0x23AB JUMPI PUSH1 0x0 DUP1 REVERT JUMPDEST POP GAS STATICCALL ISZERO DUP1 ISZERO PUSH2 0x23BF JUMPI RETURNDATASIZE PUSH1 0x0 DUP1 RETURNDATACOPY RETURNDATASIZE PUSH1 0x0 REVERT JUMPDEST POP POP POP POP PUSH1 0x40 MLOAD RETURNDATASIZE PUSH1 0x1F NOT PUSH1 0x1F DUP3 ADD AND DUP3 ADD DUP1 PUSH1 0x40 MSTORE POP DUP2 ADD SWAP1 PUSH2 0x23E3 SWAP2 SWAP1 PUSH2 0x2A6E JUMP JUMPDEST SWAP1 PUSH2 0x257C JUMP JUMPDEST PUSH1 0xB SLOAD PUSH1 0x40 MLOAD PUSH4 0xB6B55F25 PUSH1 0xE0 SHL DUP2 MSTORE SWAP2 SWAP3 POP PUSH2 0x100 SWAP1 DIV PUSH1 0x1 PUSH1 0x1 PUSH1 0xA0 SHL SUB AND SWAP1 PUSH4 0xB6B55F25 SWAP1 PUSH2 0x241F SWAP1 DUP5 SWAP1 PUSH1 0x4 ADD PUSH2 0x2DDF JUMP JUMPDEST PUSH1 0x20 PUSH1 0x40 MLOAD DUP1 DUP4 SUB DUP2 PUSH1 0x0 DUP8 DUP1 EXTCODESIZE ISZERO DUP1 ISZERO PUSH2 0x2439 JUMPI PUSH1 0x0 DUP1 REVERT JUMPDEST POP GAS CALL ISZERO DUP1 ISZERO PUSH2 0x244D JUMPI RETURNDATASIZE PUSH1 0x0 DUP1 RETURNDATACOPY RETURNDATASIZE PUSH1 0x0 REVERT JUMPDEST POP POP POP POP PUSH1 0x40 MLOAD RETURNDATASIZE PUSH1 0x1F NOT PUSH1 0x1F DUP3 ADD AND DUP3 ADD DUP1 PUSH1 0x40 MSTORE POP DUP2 ADD SWAP1 PUSH2 0x1FB2 SWAP2 SWAP1 PUSH2 0x2A6E JUMP JUMPDEST PUSH1 0x0 PUSH1 0xB PUSH1 0x1 SWAP1 SLOAD SWAP1 PUSH2 0x100 EXP SWAP1 DIV PUSH1 0x1 PUSH1 0x1 PUSH1 0xA0 SHL SUB AND PUSH1 0x1 PUSH1 0x1 PUSH1 0xA0 SHL SUB AND PUSH4 0x3CCFD60B PUSH1 0x40 MLOAD DUP2 PUSH4 0xFFFFFFFF AND PUSH1 0xE0 SHL DUP2 MSTORE PUSH1 0x4 ADD PUSH1 0x20 PUSH1 0x40 MLOAD DUP1 DUP4 SUB DUP2 PUSH1 0x0 DUP8 DUP1 EXTCODESIZE ISZERO DUP1 ISZERO PUSH2 0x24C3 JUMPI PUSH1 0x0 DUP1 REVERT JUMPDEST POP GAS CALL ISZERO DUP1 ISZERO PUSH2 0x24D7 JUMPI RETURNDATASIZE PUSH1 0x0 DUP1 RETURNDATACOPY RETURNDATASIZE PUSH1 0x0 REVERT JUMPDEST POP POP POP POP PUSH1 0x40 MLOAD RETURNDATASIZE PUSH1 0x1F NOT PUSH1 0x1F DUP3 ADD AND DUP3 ADD DUP1 PUSH1 0x40 MSTORE POP DUP2 ADD SWAP1 PUSH2 0x24FB SWAP2 SWAP1 PUSH2 0x2A6E JUMP JUMPDEST POP PUSH1 0x6 SLOAD PUSH1 0x40 MLOAD PUSH4 0x70A08231 PUSH1 0xE0 SHL DUP2 MSTORE PUSH1 0x1 PUSH1 0x1 PUSH1 0xA0 SHL SUB SWAP1 SWAP2 AND SWAP1 PUSH4 0x70A08231 SWAP1 PUSH2 0x252C SWAP1 ADDRESS SWAP1 PUSH1 0x4 ADD PUSH2 0x2AA2 JUMP JUMPDEST PUSH1 0x20 PUSH1 0x40 MLOAD DUP1 DUP4 SUB DUP2 DUP7 DUP1 EXTCODESIZE ISZERO DUP1 ISZERO PUSH2 0x2544 JUMPI PUSH1 0x0 DUP1 REVERT JUMPDEST POP GAS STATICCALL ISZERO DUP1 ISZERO PUSH2 0x2558 JUMPI RETURNDATASIZE PUSH1 0x0 DUP1 RETURNDATACOPY RETURNDATASIZE PUSH1 0x0 REVERT JUMPDEST POP POP POP POP PUSH1 0x40 MLOAD RETURNDATASIZE PUSH1 0x1F NOT PUSH1 0x1F DUP3 ADD AND DUP3 ADD DUP1 PUSH1 0x40 MSTORE POP DUP2 ADD SWAP1 PUSH2 0x905 SWAP2 SWAP1 PUSH2 0x2A6E JUMP JUMPDEST PUSH1 0x0 PUSH2 0x20AB DUP4 DUP4 PUSH1 0x40 MLOAD DUP1 PUSH1 0x40 ADD PUSH1 0x40 MSTORE DUP1 PUSH1 0x1E DUP2 MSTORE PUSH1 0x20 ADD PUSH32 0x536166654D6174683A207375627472616374696F6E206F766572666C6F770000 DUP2 MSTORE POP PUSH2 0x27B1 JUMP JUMPDEST PUSH1 0x0 DUP1 DUP1 DUP4 ISZERO PUSH2 0x25E5 JUMPI PUSH1 0x0 PUSH2 0x25D3 DUP6 PUSH2 0x20F6 JUMP JUMPDEST SWAP4 POP SWAP1 POP PUSH2 0x25E1 DUP2 DUP7 PUSH2 0x279B JUMP JUMPDEST SWAP2 POP POP JUMPDEST PUSH1 0x0 SWAP5 SWAP2 SWAP4 POP SWAP2 POP JUMP JUMPDEST PUSH1 0x0 DUP3 DUP3 ADD DUP4 DUP2 LT ISZERO PUSH2 0x20AB JUMPI PUSH1 0x40 MLOAD PUSH3 0x461BCD PUSH1 0xE5 SHL DUP2 MSTORE PUSH1 0x4 ADD PUSH2 0x4A1 SWAP1 PUSH2 0x2B9A JUMP JUMPDEST PUSH1 0x60 PUSH2 0x2669 DUP3 PUSH1 0x40 MLOAD DUP1 PUSH1 0x40 ADD PUSH1 0x40 MSTORE DUP1 PUSH1 0x20 DUP2 MSTORE PUSH1 0x20 ADD PUSH32 0x5361666545524332303A206C6F772D6C6576656C2063616C6C206661696C6564 DUP2 MSTORE POP DUP6 PUSH1 0x1 PUSH1 0x1 PUSH1 0xA0 SHL SUB AND PUSH2 0x1FB7 SWAP1 SWAP3 SWAP2 SWAP1 PUSH4 0xFFFFFFFF AND JUMP JUMPDEST DUP1 MLOAD SWAP1 SWAP2 POP ISZERO PUSH2 0x1FB2 JUMPI DUP1 DUP1 PUSH1 0x20 ADD SWAP1 MLOAD DUP2 ADD SWAP1 PUSH2 0x2687 SWAP2 SWAP1 PUSH2 0x294F JUMP JUMPDEST PUSH2 0x1FB2 JUMPI PUSH1 0x40 MLOAD PUSH3 0x461BCD PUSH1 0xE5 SHL DUP2 MSTORE PUSH1 0x4 ADD PUSH2 0x4A1 SWAP1 PUSH2 0x2D1B JUMP JUMPDEST PUSH1 0x60 DUP3 SELFBALANCE LT ISZERO PUSH2 0x26C5 JUMPI PUSH1 0x40 MLOAD PUSH3 0x461BCD PUSH1 0xE5 SHL DUP2 MSTORE PUSH1 0x4 ADD PUSH2 0x4A1 SWAP1 PUSH2 0x2BF7 JUMP JUMPDEST PUSH2 0x26CE DUP6 PUSH2 0x27DD JUMP JUMPDEST PUSH2 0x26EA JUMPI PUSH1 0x40 MLOAD PUSH3 0x461BCD PUSH1 0xE5 SHL DUP2 MSTORE PUSH1 0x4 ADD PUSH2 0x4A1 SWAP1 PUSH2 0x2CBF JUMP JUMPDEST PUSH1 0x0 PUSH1 0x60 DUP7 PUSH1 0x1 PUSH1 0x1 PUSH1 0xA0 SHL SUB AND DUP6 DUP8 PUSH1 0x40 MLOAD PUSH2 0x2707 SWAP2 SWAP1 PUSH2 0x2A86 JUMP JUMPDEST PUSH1 0x0 PUSH1 0x40 MLOAD DUP1 DUP4 SUB DUP2 DUP6 DUP8 GAS CALL SWAP3 POP POP POP RETURNDATASIZE DUP1 PUSH1 0x0 DUP2 EQ PUSH2 0x2744 JUMPI PUSH1 0x40 MLOAD SWAP2 POP PUSH1 0x1F NOT PUSH1 0x3F RETURNDATASIZE ADD AND DUP3 ADD PUSH1 0x40 MSTORE RETURNDATASIZE DUP3 MSTORE RETURNDATASIZE PUSH1 0x0 PUSH1 0x20 DUP5 ADD RETURNDATACOPY PUSH2 0x2749 JUMP JUMPDEST PUSH1 0x60 SWAP2 POP JUMPDEST POP SWAP2 POP SWAP2 POP PUSH2 0x2759 DUP3 DUP3 DUP7 PUSH2 0x27E3 JUMP JUMPDEST SWAP8 SWAP7 POP POP POP POP POP POP POP JUMP JUMPDEST PUSH1 0x0 DUP2 DUP4 PUSH2 0x2785 JUMPI PUSH1 0x40 MLOAD PUSH3 0x461BCD PUSH1 0xE5 SHL DUP2 MSTORE PUSH1 0x4 ADD PUSH2 0x4A1 SWAP2 SWAP1 PUSH2 0x2B23 JUMP JUMPDEST POP PUSH1 0x0 DUP4 DUP6 DUP2 PUSH2 0x2791 JUMPI INVALID JUMPDEST DIV SWAP6 SWAP5 POP POP POP POP POP JUMP JUMPDEST PUSH1 0x0 DUP2 DUP4 LT PUSH2 0x27AA JUMPI DUP2 PUSH2 0x20AB JUMP JUMPDEST POP SWAP1 SWAP2 SWAP1 POP JUMP JUMPDEST PUSH1 0x0 DUP2 DUP5 DUP5 GT ISZERO PUSH2 0x27D5 JUMPI PUSH1 0x40 MLOAD PUSH3 0x461BCD PUSH1 0xE5 SHL DUP2 MSTORE PUSH1 0x4 ADD PUSH2 0x4A1 SWAP2 SWAP1 PUSH2 0x2B23 JUMP JUMPDEST POP POP POP SWAP1 SUB SWAP1 JUMP JUMPDEST EXTCODESIZE ISZERO ISZERO SWAP1 JUMP JUMPDEST PUSH1 0x60 DUP4 ISZERO PUSH2 0x27F2 JUMPI POP DUP2 PUSH2 0x1FC9 JUMP JUMPDEST DUP3 MLOAD ISZERO PUSH2 0x2802 JUMPI DUP3 MLOAD DUP1 DUP5 PUSH1 0x20 ADD REVERT JUMPDEST DUP2 PUSH1 0x40 MLOAD PUSH3 0x461BCD PUSH1 0xE5 SHL DUP2 MSTORE PUSH1 0x4 ADD PUSH2 0x4A1 SWAP2 SWAP1 PUSH2 0x2B23 JUMP JUMPDEST DUP3 DUP1 SLOAD PUSH1 0x1 DUP2 PUSH1 0x1 AND ISZERO PUSH2 0x100 MUL SUB AND PUSH1 0x2 SWAP1 DIV SWAP1 PUSH1 0x0 MSTORE PUSH1 0x20 PUSH1 0x0 KECCAK256 SWAP1 PUSH1 0x1F ADD PUSH1 0x20 SWAP1 DIV DUP2 ADD SWAP3 DUP3 PUSH1 0x1F LT PUSH2 0x285D JUMPI DUP3 DUP1 ADD PUSH1 0xFF NOT DUP3 CALLDATALOAD AND OR DUP6 SSTORE PUSH2 0x288A JUMP JUMPDEST DUP3 DUP1 ADD PUSH1 0x1 ADD DUP6 SSTORE DUP3 ISZERO PUSH2 0x288A JUMPI SWAP2 DUP3 ADD JUMPDEST DUP3 DUP2 GT ISZERO PUSH2 0x288A JUMPI DUP3 CALLDATALOAD DUP3 SSTORE SWAP2 PUSH1 0x20 ADD SWAP2 SWAP1 PUSH1 0x1 ADD SWAP1 PUSH2 0x286F JUMP JUMPDEST POP PUSH2 0x2896 SWAP3 SWAP2 POP PUSH2 0x28E6 JUMP JUMPDEST POP SWAP1 JUMP JUMPDEST PUSH1 0x40 MLOAD DUP1 PUSH2 0x120 ADD PUSH1 0x40 MSTORE DUP1 PUSH1 0x0 DUP2 MSTORE PUSH1 0x20 ADD PUSH1 0x0 DUP2 MSTORE PUSH1 0x20 ADD PUSH1 0x0 DUP2 MSTORE PUSH1 0x20 ADD PUSH1 0x0 DUP2 MSTORE PUSH1 0x20 ADD PUSH1 0x0 DUP2 MSTORE PUSH1 0x20 ADD PUSH1 0x0 DUP2 MSTORE PUSH1 0x20 ADD PUSH1 0x0 DUP2 MSTORE PUSH1 0x20 ADD PUSH1 0x0 DUP2 MSTORE PUSH1 0x20 ADD PUSH1 0x0 DUP2 MSTORE POP SWAP1 JUMP JUMPDEST JUMPDEST DUP1 DUP3 GT ISZERO PUSH2 0x2896 JUMPI PUSH1 0x0 DUP2 SSTORE PUSH1 0x1 ADD PUSH2 0x28E7 JUMP JUMPDEST PUSH1 0x0 PUSH1 0x20 DUP3 DUP5 SUB SLT ISZERO PUSH2 0x290C JUMPI DUP1 DUP2 REVERT JUMPDEST DUP2 CALLDATALOAD PUSH2 0x20AB DUP2 PUSH2 0x2E93 JUMP JUMPDEST PUSH1 0x0 PUSH1 0x20 DUP3 DUP5 SUB SLT ISZERO PUSH2 0x2928 JUMPI DUP1 DUP2 REVERT JUMPDEST DUP2 MLOAD PUSH2 0x20AB DUP2 PUSH2 0x2E93 JUMP JUMPDEST PUSH1 0x0 PUSH1 0x20 DUP3 DUP5 SUB SLT ISZERO PUSH2 0x2944 JUMPI DUP1 DUP2 REVERT JUMPDEST DUP2 CALLDATALOAD PUSH2 0x20AB DUP2 PUSH2 0x2EA8 JUMP JUMPDEST PUSH1 0x0 PUSH1 0x20 DUP3 DUP5 SUB SLT ISZERO PUSH2 0x2960 JUMPI DUP1 DUP2 REVERT JUMPDEST DUP2 MLOAD PUSH2 0x20AB DUP2 PUSH2 0x2EA8 JUMP JUMPDEST PUSH1 0x0 DUP1 PUSH1 0x20 DUP4 DUP6 SUB SLT ISZERO PUSH2 0x297D JUMPI DUP1 DUP2 REVERT JUMPDEST DUP3 CALLDATALOAD PUSH8 0xFFFFFFFFFFFFFFFF DUP1 DUP3 GT ISZERO PUSH2 0x2994 JUMPI DUP3 DUP4 REVERT JUMPDEST DUP2 DUP6 ADD SWAP2 POP DUP6 PUSH1 0x1F DUP4 ADD SLT PUSH2 0x29A7 JUMPI DUP3 DUP4 REVERT JUMPDEST DUP2 CALLDATALOAD DUP2 DUP2 GT ISZERO PUSH2 0x29B5 JUMPI DUP4 DUP5 REVERT JUMPDEST DUP7 PUSH1 0x20 DUP3 DUP6 ADD ADD GT ISZERO PUSH2 0x29C6 JUMPI DUP4 DUP5 REVERT JUMPDEST PUSH1 0x20 SWAP3 SWAP1 SWAP3 ADD SWAP7 SWAP2 SWAP6 POP SWAP1 SWAP4 POP POP POP POP JUMP JUMPDEST PUSH1 0x0 PUSH2 0x120 DUP1 DUP4 DUP6 SUB SLT ISZERO PUSH2 0x29EB JUMPI DUP2 DUP3 REVERT JUMPDEST PUSH2 0x29F4 DUP2 PUSH2 0x2E3C JUMP JUMPDEST SWAP1 POP DUP3 MLOAD DUP2 MSTORE PUSH1 0x20 DUP4 ADD MLOAD PUSH1 0x20 DUP3 ADD MSTORE PUSH1 0x40 DUP4 ADD MLOAD PUSH1 0x40 DUP3 ADD MSTORE PUSH1 0x60 DUP4 ADD MLOAD PUSH1 0x60 DUP3 ADD MSTORE PUSH1 0x80 DUP4 ADD MLOAD PUSH1 0x80 DUP3 ADD MSTORE PUSH1 0xA0 DUP4 ADD MLOAD PUSH1 0xA0 DUP3 ADD MSTORE PUSH1 0xC0 DUP4 ADD MLOAD PUSH1 0xC0 DUP3 ADD MSTORE PUSH1 0xE0 DUP4 ADD MLOAD PUSH1 0xE0 DUP3 ADD MSTORE PUSH2 0x100 DUP1 DUP5 ADD MLOAD DUP2 DUP4 ADD MSTORE POP DUP1 SWAP2 POP POP SWAP3 SWAP2 POP POP JUMP JUMPDEST PUSH1 0x0 PUSH1 0x20 DUP3 DUP5 SUB SLT ISZERO PUSH2 0x2A67 JUMPI DUP1 DUP2 REVERT JUMPDEST POP CALLDATALOAD SWAP2 SWAP1 POP JUMP JUMPDEST PUSH1 0x0 PUSH1 0x20 DUP3 DUP5 SUB SLT ISZERO PUSH2 0x2A7F JUMPI DUP1 DUP2 REVERT JUMPDEST POP MLOAD SWAP2 SWAP1 POP JUMP JUMPDEST PUSH1 0x0 DUP3 MLOAD PUSH2 0x2A98 DUP2 DUP5 PUSH1 0x20 DUP8 ADD PUSH2 0x2E63 JUMP JUMPDEST SWAP2 SWAP1 SWAP2 ADD SWAP3 SWAP2 POP POP JUMP JUMPDEST PUSH1 0x1 PUSH1 0x1 PUSH1 0xA0 SHL SUB SWAP2 SWAP1 SWAP2 AND DUP2 MSTORE PUSH1 0x20 ADD SWAP1 JUMP JUMPDEST PUSH1 0x1 PUSH1 0x1 PUSH1 0xA0 SHL SUB SWAP3 DUP4 AND DUP2 MSTORE SWAP2 AND PUSH1 0x20 DUP3 ADD MSTORE PUSH1 0x40 ADD SWAP1 JUMP JUMPDEST PUSH1 0x1 PUSH1 0x1 PUSH1 0xA0 SHL SUB SWAP3 SWAP1 SWAP3 AND DUP3 MSTORE PUSH1 0x20 DUP3 ADD MSTORE PUSH1 0x40 ADD SWAP1 JUMP JUMPDEST SWAP1 ISZERO ISZERO DUP2 MSTORE PUSH1 0x20 ADD SWAP1 JUMP JUMPDEST PUSH1 0x0 PUSH1 0x20 DUP3 MSTORE DUP3 PUSH1 0x20 DUP4 ADD MSTORE DUP3 DUP5 PUSH1 0x40 DUP5 ADD CALLDATACOPY DUP2 DUP4 ADD PUSH1 0x40 SWAP1 DUP2 ADD SWAP2 SWAP1 SWAP2 MSTORE PUSH1 0x1F SWAP1 SWAP3 ADD PUSH1 0x1F NOT AND ADD ADD SWAP2 SWAP1 POP JUMP JUMPDEST PUSH1 0x0 PUSH1 0x20 DUP3 MSTORE DUP3 MLOAD DUP1 PUSH1 0x20 DUP5 ADD MSTORE PUSH2 0x2B42 DUP2 PUSH1 0x40 DUP6 ADD PUSH1 0x20 DUP8 ADD PUSH2 0x2E63 JUMP JUMPDEST PUSH1 0x1F ADD PUSH1 0x1F NOT AND SWAP2 SWAP1 SWAP2 ADD PUSH1 0x40 ADD SWAP3 SWAP2 POP POP JUMP JUMPDEST PUSH1 0x20 DUP1 DUP3 MSTORE PUSH1 0xB SWAP1 DUP3 ADD MSTORE PUSH11 0x85CDD1C985D1959DA5CDD PUSH1 0xAA SHL PUSH1 0x40 DUP3 ADD MSTORE PUSH1 0x60 ADD SWAP1 JUMP JUMPDEST PUSH1 0x20 DUP1 DUP3 MSTORE PUSH1 0x5 SWAP1 DUP3 ADD MSTORE PUSH5 0x85DD85B9D PUSH1 0xDA SHL PUSH1 0x40 DUP3 ADD MSTORE PUSH1 0x60 ADD SWAP1 JUMP JUMPDEST PUSH1 0x20 DUP1 DUP3 MSTORE PUSH1 0x1B SWAP1 DUP3 ADD MSTORE PUSH32 0x536166654D6174683A206164646974696F6E206F766572666C6F770000000000 PUSH1 0x40 DUP3 ADD MSTORE PUSH1 0x60 ADD SWAP1 JUMP JUMPDEST PUSH1 0x20 DUP1 DUP3 MSTORE PUSH1 0xC SWAP1 DUP3 ADD MSTORE PUSH12 0x216865616C7468636865636B PUSH1 0xA0 SHL PUSH1 0x40 DUP3 ADD MSTORE PUSH1 0x60 ADD SWAP1 JUMP JUMPDEST PUSH1 0x20 DUP1 DUP3 MSTORE PUSH1 0x26 SWAP1 DUP3 ADD MSTORE PUSH32 0x416464726573733A20696E73756666696369656E742062616C616E636520666F PUSH1 0x40 DUP3 ADD MSTORE PUSH6 0x1C8818D85B1B PUSH1 0xD2 SHL PUSH1 0x60 DUP3 ADD MSTORE PUSH1 0x80 ADD SWAP1 JUMP JUMPDEST PUSH1 0x20 DUP1 DUP3 MSTORE PUSH1 0x21 SWAP1 DUP3 ADD MSTORE PUSH32 0x536166654D6174683A206D756C7469706C69636174696F6E206F766572666C6F PUSH1 0x40 DUP3 ADD MSTORE PUSH1 0x77 PUSH1 0xF8 SHL PUSH1 0x60 DUP3 ADD MSTORE PUSH1 0x80 ADD SWAP1 JUMP JUMPDEST PUSH1 0x20 DUP1 DUP3 MSTORE PUSH1 0x6 SWAP1 DUP3 ADD MSTORE PUSH6 0x85D985D5B1D PUSH1 0xD2 SHL PUSH1 0x40 DUP3 ADD MSTORE PUSH1 0x60 ADD SWAP1 JUMP JUMPDEST PUSH1 0x20 DUP1 DUP3 MSTORE PUSH1 0x7 SWAP1 DUP3 ADD MSTORE PUSH7 0x21736861726573 PUSH1 0xC8 SHL PUSH1 0x40 DUP3 ADD MSTORE PUSH1 0x60 ADD SWAP1 JUMP JUMPDEST PUSH1 0x20 DUP1 DUP3 MSTORE PUSH1 0x1D SWAP1 DUP3 ADD MSTORE PUSH32 0x416464726573733A2063616C6C20746F206E6F6E2D636F6E7472616374000000 PUSH1 0x40 DUP3 ADD MSTORE PUSH1 0x60 ADD SWAP1 JUMP JUMPDEST PUSH1 0x20 DUP1 DUP3 MSTORE PUSH1 0xB SWAP1 DUP3 ADD MSTORE PUSH11 0x8585D5D1A1BDC9A5E9959 PUSH1 0xAA SHL PUSH1 0x40 DUP3 ADD MSTORE PUSH1 0x60 ADD SWAP1 JUMP JUMPDEST PUSH1 0x20 DUP1 DUP3 MSTORE PUSH1 0x2A SWAP1 DUP3 ADD MSTORE PUSH32 0x5361666545524332303A204552433230206F7065726174696F6E20646964206E PUSH1 0x40 DUP3 ADD MSTORE PUSH10 0x1BDD081CDD58D8D95959 PUSH1 0xB2 SHL PUSH1 0x60 DUP3 ADD MSTORE PUSH1 0x80 ADD SWAP1 JUMP JUMPDEST PUSH1 0x20 DUP1 DUP3 MSTORE PUSH1 0xA SWAP1 DUP3 ADD MSTORE PUSH10 0x85C1C9BDD1958DD1959 PUSH1 0xB2 SHL PUSH1 0x40 DUP3 ADD MSTORE PUSH1 0x60 ADD SWAP1 JUMP JUMPDEST PUSH1 0x20 DUP1 DUP3 MSTORE PUSH1 0x36 SWAP1 DUP3 ADD MSTORE PUSH32 0x5361666545524332303A20617070726F76652066726F6D206E6F6E2D7A65726F PUSH1 0x40 DUP3 ADD MSTORE PUSH22 0x20746F206E6F6E2D7A65726F20616C6C6F77616E6365 PUSH1 0x50 SHL PUSH1 0x60 DUP3 ADD MSTORE PUSH1 0x80 ADD SWAP1 JUMP JUMPDEST SWAP1 DUP2 MSTORE PUSH1 0x20 ADD SWAP1 JUMP JUMPDEST SWAP3 DUP4 MSTORE PUSH1 0x20 DUP4 ADD SWAP2 SWAP1 SWAP2 MSTORE PUSH1 0x40 DUP3 ADD MSTORE PUSH1 0x60 ADD SWAP1 JUMP JUMPDEST SWAP4 DUP5 MSTORE PUSH1 0x20 DUP5 ADD SWAP3 SWAP1 SWAP3 MSTORE PUSH1 0x40 DUP4 ADD MSTORE PUSH1 0x60 DUP3 ADD MSTORE PUSH1 0x80 ADD SWAP1 JUMP JUMPDEST SWAP5 DUP6 MSTORE PUSH1 0x20 DUP6 ADD SWAP4 SWAP1 SWAP4 MSTORE PUSH1 0x40 DUP5 ADD SWAP2 SWAP1 SWAP2 MSTORE PUSH1 0x60 DUP4 ADD MSTORE PUSH1 0x80 DUP3 ADD MSTORE PUSH1 0xA0 ADD SWAP1 JUMP JUMPDEST PUSH1 0x40 MLOAD DUP2 DUP2 ADD PUSH8 0xFFFFFFFFFFFFFFFF DUP2 GT DUP3 DUP3 LT OR ISZERO PUSH2 0x2E5B JUMPI PUSH1 0x0 DUP1 REVERT JUMPDEST PUSH1 0x40 MSTORE SWAP2 SWAP1 POP JUMP JUMPDEST PUSH1 0x0 JUMPDEST DUP4 DUP2 LT ISZERO PUSH2 0x2E7E JUMPI DUP2 DUP2 ADD MLOAD DUP4 DUP3 ADD MSTORE PUSH1 0x20 ADD PUSH2 0x2E66 JUMP JUMPDEST DUP4 DUP2 GT ISZERO PUSH2 0x2E8D JUMPI PUSH1 0x0 DUP5 DUP5 ADD MSTORE JUMPDEST POP POP POP POP JUMP JUMPDEST PUSH1 0x1 PUSH1 0x1 PUSH1 0xA0 SHL SUB DUP2 AND DUP2 EQ PUSH2 0x174F JUMPI PUSH1 0x0 DUP1 REVERT JUMPDEST DUP1 ISZERO ISZERO DUP2 EQ PUSH2 0x174F JUMPI PUSH1 0x0 DUP1 REVERT INVALID MSTORE8 PUSH21 0x7261746567793C50726F746F636F6C4E616D653E3C SLOAD PUSH16 0x6B656E547970653EA264697066735822 SLT KECCAK256 0x4F 0xEA DUP16 PUSH4 0x6D456D18 0x26 0xA8 0xDD 0xCB 0x29 ISZERO 0x5F 0xD2 PUSH11 0xA2E8A8F5CC7D70F24ABAFF PUSH24 0x68E34764736F6C634300060C003300000000000000000000 ",
  "sha1": "48fcae3d4dd2bdff75f23dde3efb5d6b96320c4c",
  "source": "// SPDX-License-Identifier: AGPL-3.0\n// Feel free to change the license, but this is what we use\n\n// Feel free to change this version of Solidity. We support >=0.6.0 <0.7.0;\npragma solidity 0.6.12;\npragma experimental ABIEncoderV2;\n\n// These are the core Yearn libraries\nimport {\n    BaseStrategy,\n    StrategyParams,\n    VaultAPI\n} from \"@yearnvaults/contracts/BaseStrategy.sol\";\nimport {\n    SafeERC20,\n    SafeMath,\n    IERC20,\n    Address\n} from \"@openzeppelin/contracts/token/ERC20/SafeERC20.sol\";\nimport {Math} from \"@openzeppelin/contracts/math/Math.sol\";\n// import \"../interfaces/I_vault.sol\";\n// import \"../interfaces/VaultAPI.sol\";\n\n// Import interfaces for many popular DeFi projects, or add your own!\n//import \"../interfaces/<protocol>/<Interface>.sol\";\n\ncontract Strategy is BaseStrategy {\n    using SafeERC20 for IERC20;\n    using Address for address;\n    using SafeMath for uint256;\n    \n    VaultAPI public externalVault;\n    \n    constructor(address _vault, address _externalVault) public BaseStrategy(_vault) {\n        vault = VaultAPI(_vault);\n        externalVault = VaultAPI(_externalVault);\n        want.safeApprove(address(_externalVault), type(uint256).max);\n        // You can set these parameters on deployment to whatever you want\n        // maxReportDelay = 6300;\n        // profitFactor = 100;\n        // debtThreshold = 0;\n    }\n\n    // ******** OVERRIDE THESE METHODS FROM BASE CONTRACT ************\n\n    function name() external view override returns (string memory) {\n        // Add your own name here, suggestion e.g. \"StrategyCreamYFI\"\n        return \"Strategy<ProtocolName><TokenType>\";\n    }\n\n    function estimatedTotalAssets() public view override returns (uint256) {\n        // TODO: Build a more accurate estimate using the value of all positions in terms of `want`\n        return want.balanceOf(address(this)).add(balanceOfStake());\n    }\n\n    function prepareReturn(uint256 _debtOutstanding)\n        internal\n        override\n        returns (\n            uint256 _profit,\n            uint256 _loss,\n            uint256 _debtPayment\n        )\n    {\n        if (_debtOutstanding > 0) {\n            uint256 _amountFreed = 0;\n            (_amountFreed, _loss) = liquidatePosition(_debtOutstanding);\n            _debtPayment = Math.min(_amountFreed, _debtOutstanding);\n        }\n        // _profit = balanceOfWant().sub(balanceOfWantBefore);\n        _profit = 0;\n    }\n        // TODO: Do stuff here to free up any returns back into `want`\n        // NOTE: Return `_profit` which is value generated by all positions, priced in `want`\n        // NOTE: Should try to free up at least `_debtOutstanding` of underlying position\n\n    function adjustPosition(uint256 _debtOutstanding) internal override {\n        \n        if (want.balanceOf(address(this)) >_debtOutstanding){\n            uint256 availableToInvest = want.balanceOf(address(this)).sub(_debtOutstanding);\n            externalVault.deposit(availableToInvest);\n        }\n        // TODO: Do something to invest excess `want` tokens (from the Vault) into your positions\n        // NOTE: Try to adjust positions so that `_debtOutstanding` can be freed up on *next* harvest (not immediately)\n    }\n\n    function liquidatePosition(uint256 _amountNeeded)\n        internal\n        override\n        returns (uint256 _liquidatedAmount, uint256 _loss)\n    {\n        // TODO: Do stuff here to free up to `_amountNeeded` from all positions back into `want`\n        // NOTE: Maintain invariant `want.balanceOf(this) >= _liquidatedAmount`\n        // NOTE: Maintain invariant `_liquidatedAmount + _loss <= _amountNeeded`\n        uint256 balanceOfWant = want.balanceOf(address(this));\n        if(_amountNeeded > balanceOfWant){\n            uint256 balanceOfStake = balanceOfStake(); \n            externalVault.withdraw(Math.min(balanceOfStake, _amountNeeded.sub(balanceOfWant)));\n        }\n        uint256 totalAssets = want.balanceOf(address(this));\n        if (_amountNeeded > totalAssets) {\n            _liquidatedAmount = totalAssets;\n            _loss = _amountNeeded.sub(totalAssets);\n        } else {\n            _liquidatedAmount = _amountNeeded;\n        }\n    }\n\n    function liquidateAllPositions() internal override returns (uint256) {\n        // TODO: Liquidate all positions and return the amount freed.\n        externalVault.withdraw();\n        return want.balanceOf(address(this));\n    }\n\n    // NOTE: Can override `tendTrigger` and `harvestTrigger` if necessary\n\n    function prepareMigration(address _newStrategy) internal override {\n        // TODO: Transfer any non-`want` tokens to the new strategy\n        // NOTE: `migrate` will automatically forward all `want` in this strategy to the new one\n    }\n\n    // Override this to add all tokens/tokenized positions this contract manages\n    // on a *persistent* basis (e.g. not just for swapping back to want ephemerally)\n    // NOTE: Do *not* include `want`, already included in `sweep` below\n    //\n    // Example:\n    //\n    //    function protectedTokens() internal override view returns (address[] memory) {\n    //      address[] memory protected = new address[](3);\n    //      protected[0] = tokenA;\n    //      protected[1] = tokenB;\n    //      protected[2] = tokenC;\n    //      return protected;\n    //    }\n    function protectedTokens()\n        internal\n        view\n        override\n        returns (address[] memory)\n    {}\n\n    /**\n     * @notice\n     *  Provide an accurate conversion from `_amtInWei` (denominated in wei)\n     *  to `want` (using the native decimal characteristics of `want`).\n     * @dev\n     *  Care must be taken when working with decimals to assure that the conversion\n     *  is compatible. As an example:\n     *\n     *      given 1e17 wei (0.1 ETH) as input, and want is USDC (6 decimals),\n     *      with USDC/ETH = 1800, this should give back 1800000000 (180 USDC)\n     *\n     * @param _amtInWei The amount (in wei/1e-18 ETH) to convert to `want`\n     * @return The amount in `want` of `_amtInEth` converted to `want`\n     **/\n    function ethToWant(uint256 _amtInWei)\n        public\n        view\n        virtual\n        override\n        returns (uint256)\n    {\n        // TODO create an accurate price oracle\n        return _amtInWei;\n    }\n    function balanceOfStake() public view returns (uint256){\n        return (externalVault.balanceOf(address(this)).mul(externalVault.pricePerShare())).div(1e18);\n    }\n}\n",
  "sourcePath": "contracts/Strategy.sol",
  "type": "contract"
}